{
  "contractName": "IEarnAPRWithPool",
  "abi": [
    {
      "inputs": [],
      "payable": false,
      "stateMutability": "nonpayable",
      "type": "constructor"
    },
    {
      "anonymous": false,
      "inputs": [
        {
          "indexed": true,
          "internalType": "address",
          "name": "previousOwner",
          "type": "address"
        },
        {
          "indexed": true,
          "internalType": "address",
          "name": "newOwner",
          "type": "address"
        }
      ],
      "name": "OwnershipTransferred",
      "type": "event"
    },
    {
      "constant": true,
      "inputs": [],
      "name": "APR",
      "outputs": [
        {
          "internalType": "address",
          "name": "",
          "type": "address"
        }
      ],
      "payable": false,
      "stateMutability": "view",
      "type": "function"
    },
    {
      "constant": true,
      "inputs": [],
      "name": "UNI",
      "outputs": [
        {
          "internalType": "address",
          "name": "",
          "type": "address"
        }
      ],
      "payable": false,
      "stateMutability": "view",
      "type": "function"
    },
    {
      "constant": true,
      "inputs": [],
      "name": "UNIAPR",
      "outputs": [
        {
          "internalType": "address",
          "name": "",
          "type": "address"
        }
      ],
      "payable": false,
      "stateMutability": "view",
      "type": "function"
    },
    {
      "constant": true,
      "inputs": [],
      "name": "UNIROI",
      "outputs": [
        {
          "internalType": "address",
          "name": "",
          "type": "address"
        }
      ],
      "payable": false,
      "stateMutability": "view",
      "type": "function"
    },
    {
      "constant": true,
      "inputs": [
        {
          "internalType": "address",
          "name": "",
          "type": "address"
        }
      ],
      "name": "aave",
      "outputs": [
        {
          "internalType": "address",
          "name": "",
          "type": "address"
        }
      ],
      "payable": false,
      "stateMutability": "view",
      "type": "function"
    },
    {
      "constant": true,
      "inputs": [
        {
          "internalType": "address",
          "name": "",
          "type": "address"
        }
      ],
      "name": "aaveUni",
      "outputs": [
        {
          "internalType": "address",
          "name": "",
          "type": "address"
        }
      ],
      "payable": false,
      "stateMutability": "view",
      "type": "function"
    },
    {
      "constant": true,
      "inputs": [
        {
          "internalType": "address",
          "name": "",
          "type": "address"
        }
      ],
      "name": "compound",
      "outputs": [
        {
          "internalType": "address",
          "name": "",
          "type": "address"
        }
      ],
      "payable": false,
      "stateMutability": "view",
      "type": "function"
    },
    {
      "constant": true,
      "inputs": [
        {
          "internalType": "address",
          "name": "",
          "type": "address"
        }
      ],
      "name": "dydx",
      "outputs": [
        {
          "internalType": "uint256",
          "name": "",
          "type": "uint256"
        }
      ],
      "payable": false,
      "stateMutability": "view",
      "type": "function"
    },
    {
      "constant": true,
      "inputs": [
        {
          "internalType": "address",
          "name": "",
          "type": "address"
        }
      ],
      "name": "fulcrum",
      "outputs": [
        {
          "internalType": "address",
          "name": "",
          "type": "address"
        }
      ],
      "payable": false,
      "stateMutability": "view",
      "type": "function"
    },
    {
      "constant": true,
      "inputs": [],
      "name": "isOwner",
      "outputs": [
        {
          "internalType": "bool",
          "name": "",
          "type": "bool"
        }
      ],
      "payable": false,
      "stateMutability": "view",
      "type": "function"
    },
    {
      "constant": true,
      "inputs": [],
      "name": "owner",
      "outputs": [
        {
          "internalType": "address",
          "name": "",
          "type": "address"
        }
      ],
      "payable": false,
      "stateMutability": "view",
      "type": "function"
    },
    {
      "constant": true,
      "inputs": [
        {
          "internalType": "address",
          "name": "",
          "type": "address"
        }
      ],
      "name": "pools",
      "outputs": [
        {
          "internalType": "uint256",
          "name": "",
          "type": "uint256"
        }
      ],
      "payable": false,
      "stateMutability": "view",
      "type": "function"
    },
    {
      "constant": false,
      "inputs": [],
      "name": "renounceOwnership",
      "outputs": [],
      "payable": false,
      "stateMutability": "nonpayable",
      "type": "function"
    },
    {
      "constant": false,
      "inputs": [
        {
          "internalType": "address",
          "name": "newOwner",
          "type": "address"
        }
      ],
      "name": "transferOwnership",
      "outputs": [],
      "payable": false,
      "stateMutability": "nonpayable",
      "type": "function"
    },
    {
      "constant": true,
      "inputs": [
        {
          "internalType": "address",
          "name": "",
          "type": "address"
        }
      ],
      "name": "yTokens",
      "outputs": [
        {
          "internalType": "address",
          "name": "",
          "type": "address"
        }
      ],
      "payable": false,
      "stateMutability": "view",
      "type": "function"
    },
    {
      "constant": true,
      "inputs": [
        {
          "internalType": "address",
          "name": "",
          "type": "address"
        }
      ],
      "name": "yearns",
      "outputs": [
        {
          "internalType": "uint256",
          "name": "",
          "type": "uint256"
        }
      ],
      "payable": false,
      "stateMutability": "view",
      "type": "function"
    },
    {
      "constant": true,
      "inputs": [
        {
          "internalType": "address",
          "name": "_token",
          "type": "address"
        }
      ],
      "name": "getAPROptionsInc",
      "outputs": [
        {
          "internalType": "uint256",
          "name": "_uniswap",
          "type": "uint256"
        },
        {
          "internalType": "uint256",
          "name": "_compound",
          "type": "uint256"
        },
        {
          "internalType": "uint256",
          "name": "_unicompound",
          "type": "uint256"
        },
        {
          "internalType": "uint256",
          "name": "_fulcrum",
          "type": "uint256"
        },
        {
          "internalType": "uint256",
          "name": "_unifulcrum",
          "type": "uint256"
        },
        {
          "internalType": "uint256",
          "name": "_aave",
          "type": "uint256"
        },
        {
          "internalType": "uint256",
          "name": "_uniaave",
          "type": "uint256"
        },
        {
          "internalType": "uint256",
          "name": "_dydx",
          "type": "uint256"
        },
        {
          "internalType": "uint256",
          "name": "_ddex",
          "type": "uint256"
        },
        {
          "internalType": "uint256",
          "name": "_lendf",
          "type": "uint256"
        }
      ],
      "payable": false,
      "stateMutability": "view",
      "type": "function"
    },
    {
      "constant": true,
      "inputs": [
        {
          "internalType": "address",
          "name": "_token",
          "type": "address"
        }
      ],
      "name": "getAPROptions",
      "outputs": [
        {
          "internalType": "uint256",
          "name": "_uniswap",
          "type": "uint256"
        },
        {
          "internalType": "uint256",
          "name": "_compound",
          "type": "uint256"
        },
        {
          "internalType": "uint256",
          "name": "_unicompound",
          "type": "uint256"
        },
        {
          "internalType": "uint256",
          "name": "_fulcrum",
          "type": "uint256"
        },
        {
          "internalType": "uint256",
          "name": "_unifulcrum",
          "type": "uint256"
        },
        {
          "internalType": "uint256",
          "name": "_aave",
          "type": "uint256"
        },
        {
          "internalType": "uint256",
          "name": "_uniaave",
          "type": "uint256"
        },
        {
          "internalType": "uint256",
          "name": "_dydx",
          "type": "uint256"
        },
        {
          "internalType": "uint256",
          "name": "_ddex",
          "type": "uint256"
        },
        {
          "internalType": "uint256",
          "name": "_lendf",
          "type": "uint256"
        }
      ],
      "payable": false,
      "stateMutability": "view",
      "type": "function"
    },
    {
      "constant": true,
      "inputs": [
        {
          "internalType": "address",
          "name": "_token",
          "type": "address"
        },
        {
          "internalType": "uint256",
          "name": "_supply",
          "type": "uint256"
        }
      ],
      "name": "getAPROptionsAdjusted",
      "outputs": [
        {
          "internalType": "uint256",
          "name": "_uniswap",
          "type": "uint256"
        },
        {
          "internalType": "uint256",
          "name": "_compound",
          "type": "uint256"
        },
        {
          "internalType": "uint256",
          "name": "_unicompound",
          "type": "uint256"
        },
        {
          "internalType": "uint256",
          "name": "_fulcrum",
          "type": "uint256"
        },
        {
          "internalType": "uint256",
          "name": "_unifulcrum",
          "type": "uint256"
        },
        {
          "internalType": "uint256",
          "name": "_aave",
          "type": "uint256"
        },
        {
          "internalType": "uint256",
          "name": "_uniaave",
          "type": "uint256"
        },
        {
          "internalType": "uint256",
          "name": "_dydx",
          "type": "uint256"
        },
        {
          "internalType": "uint256",
          "name": "_ddex",
          "type": "uint256"
        },
        {
          "internalType": "uint256",
          "name": "_lendf",
          "type": "uint256"
        }
      ],
      "payable": false,
      "stateMutability": "view",
      "type": "function"
    },
    {
      "constant": true,
      "inputs": [
        {
          "internalType": "address",
          "name": "_token",
          "type": "address"
        }
      ],
      "name": "viewPool",
      "outputs": [
        {
          "internalType": "address",
          "name": "token",
          "type": "address"
        },
        {
          "internalType": "address",
          "name": "unipool",
          "type": "address"
        },
        {
          "internalType": "uint256",
          "name": "created",
          "type": "uint256"
        },
        {
          "internalType": "string",
          "name": "name",
          "type": "string"
        },
        {
          "internalType": "string",
          "name": "symbol",
          "type": "string"
        }
      ],
      "payable": false,
      "stateMutability": "view",
      "type": "function"
    },
    {
      "constant": false,
      "inputs": [
        {
          "internalType": "address",
          "name": "token",
          "type": "address"
        },
        {
          "internalType": "uint256",
          "name": "created",
          "type": "uint256"
        }
      ],
      "name": "addPool",
      "outputs": [],
      "payable": false,
      "stateMutability": "nonpayable",
      "type": "function"
    },
    {
      "constant": false,
      "inputs": [
        {
          "internalType": "address",
          "name": "token",
          "type": "address"
        },
        {
          "internalType": "address",
          "name": "cToken",
          "type": "address"
        }
      ],
      "name": "addCToken",
      "outputs": [],
      "payable": false,
      "stateMutability": "nonpayable",
      "type": "function"
    },
    {
      "constant": false,
      "inputs": [
        {
          "internalType": "address",
          "name": "token",
          "type": "address"
        },
        {
          "internalType": "address",
          "name": "iToken",
          "type": "address"
        }
      ],
      "name": "addIToken",
      "outputs": [],
      "payable": false,
      "stateMutability": "nonpayable",
      "type": "function"
    },
    {
      "constant": false,
      "inputs": [
        {
          "internalType": "address",
          "name": "token",
          "type": "address"
        },
        {
          "internalType": "address",
          "name": "aToken",
          "type": "address"
        }
      ],
      "name": "addAToken",
      "outputs": [],
      "payable": false,
      "stateMutability": "nonpayable",
      "type": "function"
    },
    {
      "constant": false,
      "inputs": [
        {
          "internalType": "address",
          "name": "token",
          "type": "address"
        },
        {
          "internalType": "address",
          "name": "aToken",
          "type": "address"
        }
      ],
      "name": "addAUniToken",
      "outputs": [],
      "payable": false,
      "stateMutability": "nonpayable",
      "type": "function"
    },
    {
      "constant": false,
      "inputs": [
        {
          "internalType": "address",
          "name": "token",
          "type": "address"
        },
        {
          "internalType": "address",
          "name": "yToken",
          "type": "address"
        }
      ],
      "name": "addYToken",
      "outputs": [],
      "payable": false,
      "stateMutability": "nonpayable",
      "type": "function"
    },
    {
      "constant": false,
      "inputs": [
        {
          "internalType": "address",
          "name": "token",
          "type": "address"
        },
        {
          "internalType": "uint256",
          "name": "dToken",
          "type": "uint256"
        }
      ],
      "name": "addDToken",
      "outputs": [],
      "payable": false,
      "stateMutability": "nonpayable",
      "type": "function"
    },
    {
      "constant": false,
      "inputs": [
        {
          "internalType": "address",
          "name": "_new_UNIROI",
          "type": "address"
        }
      ],
      "name": "set_new_UNIROI",
      "outputs": [],
      "payable": false,
      "stateMutability": "nonpayable",
      "type": "function"
    },
    {
      "constant": false,
      "inputs": [
        {
          "internalType": "address",
          "name": "_new_UNI",
          "type": "address"
        }
      ],
      "name": "set_new_UNI",
      "outputs": [],
      "payable": false,
      "stateMutability": "nonpayable",
      "type": "function"
    },
    {
      "constant": false,
      "inputs": [
        {
          "internalType": "address",
          "name": "_new_UNIAPR",
          "type": "address"
        }
      ],
      "name": "set_new_UNIAPR",
      "outputs": [],
      "payable": false,
      "stateMutability": "nonpayable",
      "type": "function"
    },
    {
      "constant": false,
      "inputs": [
        {
          "internalType": "address",
          "name": "_new_APR",
          "type": "address"
        }
      ],
      "name": "set_new_APR",
      "outputs": [],
      "payable": false,
      "stateMutability": "nonpayable",
      "type": "function"
    },
    {
      "constant": false,
      "inputs": [
        {
          "internalType": "contract IERC20",
          "name": "_TokenAddress",
          "type": "address"
        }
      ],
      "name": "inCaseTokenGetsStuck",
      "outputs": [],
      "payable": false,
      "stateMutability": "nonpayable",
      "type": "function"
    },
    {
      "constant": false,
      "inputs": [],
      "name": "inCaseETHGetsStuck",
      "outputs": [],
      "payable": false,
      "stateMutability": "nonpayable",
      "type": "function"
    }
  ],
  "bytecode": "0x60806040523480156200001157600080fd5b506200002262000f9d60201b60201c565b6000806101000a81548173ffffffffffffffffffffffffffffffffffffffff021916908373ffffffffffffffffffffffffffffffffffffffff1602179055506000809054906101000a900473ffffffffffffffffffffffffffffffffffffffff1673ffffffffffffffffffffffffffffffffffffffff16600073ffffffffffffffffffffffffffffffffffffffff167f8be0079c531659141344cd1fd0a4f28419497f9722a3daafe3b4186f6b6457e060405160405180910390a373c0a47dfe034b400b47bdad5fecda2621de6c4d95600960006101000a81548173ffffffffffffffffffffffffffffffffffffffff021916908373ffffffffffffffffffffffffffffffffffffffff16021790555073d04ca0ae1cd8085438fdd8c22a76246f315c2687600a60006101000a81548173ffffffffffffffffffffffffffffffffffffffff021916908373ffffffffffffffffffffffffffffffffffffffff160217905550734c70d89a4681b2151f56dc2c3fd751abb9ce3d95600b60006101000a81548173ffffffffffffffffffffffffffffffffffffffff021916908373ffffffffffffffffffffffffffffffffffffffff16021790555073e233b89c76c172e36fe6985fe8b2731522fc6177600c60006101000a81548173ffffffffffffffffffffffffffffffffffffffff021916908373ffffffffffffffffffffffffffffffffffffffff1602179055506200025a735d3a536e4d6dbd6114cc1ead35777bab948e3643628956b562000fa560201b60201c565b6200028373f5dce57282a584d2746faf1593d3121fcac444dc6275db5b62000fa560201b60201c565b620002ac736b175474e89094c44da98b954eedeac495271d0f6288674262000fa560201b60201c565b620002d06e085d4780b73119b644ae5ecd22b3766276edb462000fa560201b60201c565b620002f973a0b86991c6218b36c1d19d4a2e9eb0ce3606eb48626780d862000fa560201b60201c565b620003227357ab1ec28d129707052df4df418d58a2d46d5f516283964462000fa560201b60201c565b6200034b730d8775f648430679a709e98d2b0cb6250d2887ef6265a31e62000fa560201b60201c565b6200037473514910771af9ca656af840dff83e8264ecf986ca6265229362000fa560201b60201c565b6200039d73dd974d5c2e2928dea5f71b9825b8b646686bd2006265229062000fa560201b60201c565b620003c6731985365e9f78359a9b6ad760e32412f4a445e8626265229a62000fa560201b60201c565b620003ef739f8f72aa9304c8b593d555f12ef6589cc3a579a26265227462000fa560201b60201c565b6200041873e41d2489571d322189246dafa5ebde1f4699f4986265228462000fa560201b60201c565b6200044173c011a73ee8576fb46f5e1c5751ca3b9fe0af2a6f627edf8a62000fa560201b60201c565b6200046a732260fac5e5542a773aa44fbcfedf7c193bc2c599626ae17962000fa560201b60201c565b620004a4736b175474e89094c44da98b954eedeac495271d0f735d3a536e4d6dbd6114cc1ead35777bab948e36436200107060201b60201c565b620004de730d8775f648430679a709e98d2b0cb6250d2887ef736c8c6b02e7b2be14d4fa6022dfd6d75921d90e4e6200107060201b60201c565b6200051873eeeeeeeeeeeeeeeeeeeeeeeeeeeeeeeeeeeeeeee734ddc2d193948926d02f9b1fe9e1daa0718270ed56200107060201b60201c565b62000552731985365e9f78359a9b6ad760e32412f4a445e86273158079ee67fce2f58472a96584a73c7ab9ac95c16200107060201b60201c565b6200058c73a0b86991c6218b36c1d19d4a2e9eb0ce3606eb487339aa39c021dfbae8fac545936693ac917d5e75636200107060201b60201c565b620005c6732260fac5e5542a773aa44fbcfedf7c193bc2c59973c11b1268c1a384e55c48c2391d8d480264a3a7f46200107060201b60201c565b6200060073e41d2489571d322189246dafa5ebde1f4699f49873b3319f5d18bc0d84dd1b4825dcde5d5f7266d4076200107060201b60201c565b62000626736b175474e89094c44da98b954eedeac495271d0f806200117560201b60201c565b620006476e085d4780b73119b644ae5ecd22b376806200117560201b60201c565b6200066d73a0b86991c6218b36c1d19d4a2e9eb0ce3606eb48806200117560201b60201c565b6200069373dac17f958d2ee523a2206206994597c13d831ec7806200117560201b60201c565b620006b97357ab1ec28d129707052df4df418d58a2d46d5f51806200117560201b60201c565b620006df7380fb784b7ed66730e8b1dbd9820afd29931aab03806200117560201b60201c565b62000705730d8775f648430679a709e98d2b0cb6250d2887ef806200117560201b60201c565b6200072b73eeeeeeeeeeeeeeeeeeeeeeeeeeeeeeeeeeeeeeee806200117560201b60201c565b6200075173514910771af9ca656af840dff83e8264ecf986ca806200117560201b60201c565b6200077773dd974d5c2e2928dea5f71b9825b8b646686bd200806200117560201b60201c565b6200079d731985365e9f78359a9b6ad760e32412f4a445e862806200117560201b60201c565b620007c3739f8f72aa9304c8b593d555f12ef6589cc3a579a2806200117560201b60201c565b620007e9730f5d2fb29fb7d3cfee444a200298f468908cc942806200117560201b60201c565b6200080f73e41d2489571d322189246dafa5ebde1f4699f498806200117560201b60201c565b6200083573c011a73ee8576fb46f5e1c5751ca3b9fe0af2a6f806200117560201b60201c565b6200085b732260fac5e5542a773aa44fbcfedf7c193bc2c599806200117560201b60201c565b62000895736b175474e89094c44da98b954eedeac495271d0f73fc1e690f61efd961294b3e1ce3313fbd8aa4f85d6200127a60201b60201c565b620008ca6e085d4780b73119b644ae5ecd22b376734da9b813057d04baef4e5800e36083717b4a03416200127a60201b60201c565b6200090473a0b86991c6218b36c1d19d4a2e9eb0ce3606eb48739ba00d6856a4edf4665bca2c2309936572473b7e6200127a60201b60201c565b6200093e73dac17f958d2ee523a2206206994597c13d831ec77371fc860f7d3a592a4a98740e39db31d25db65ae86200127a60201b60201c565b620009787357ab1ec28d129707052df4df418d58a2d46d5f5173625ae63000f46200499120b906716420bd0592406200127a60201b60201c565b620009b27380fb784b7ed66730e8b1dbd9820afd29931aab03737d2d3688df45ce7c552e19c27e007673da9204b86200127a60201b60201c565b620009ec730d8775f648430679a709e98d2b0cb6250d2887ef73e1ba0fb44ccb0d11b80f92f4f8ed94ca3ff51d006200127a60201b60201c565b62000a2673eeeeeeeeeeeeeeeeeeeeeeeeeeeeeeeeeeeeeeee733a3a65aab0dd2a17e3f1947ba16138cd37d08c046200127a60201b60201c565b62000a6073514910771af9ca656af840dff83e8264ecf986ca73a64bd6c70cb9051f6a9ba1f163fdc07e0dfb5f846200127a60201b60201c565b62000a9a73dd974d5c2e2928dea5f71b9825b8b646686bd200739d91be44c06d373a8a226e1f3b146956083803eb6200127a60201b60201c565b62000ad4731985365e9f78359a9b6ad760e32412f4a445e8627371010a9d003445ac60c4e6a7017c1e89a477b4386200127a60201b60201c565b62000b0e739f8f72aa9304c8b593d555f12ef6589cc3a579a2737deb5e830be29f91e298ba5ff1356bb7f81469986200127a60201b60201c565b62000b48730f5d2fb29fb7d3cfee444a200298f468908cc942736fce4a401b6b80ace52baaefe4421bd188e76f6f6200127a60201b60201c565b62000b8273e41d2489571d322189246dafa5ebde1f4699f498736fb0855c404e09c47c3fbca25f08d4e41f9f062f6200127a60201b60201c565b62000bbc73c011a73ee8576fb46f5e1c5751ca3b9fe0af2a6f73328c4c80bc7aca0834db37e6600a6c49e12da4de6200127a60201b60201c565b62000bf6732260fac5e5542a773aa44fbcfedf7c193bc2c59973fc4b8ed459e00e5400be803a9bb3954234fd50e36200127a60201b60201c565b62000c3073e41d2489571d322189246dafa5ebde1f4699f49873a7eb2bc82df18013ecc2a6c533fc29446442edee6200137f60201b60201c565b62000c6a731985365e9f78359a9b6ad760e32412f4a445e86273bd56e9477fc6997609cf45f84795efbdac642ff16200137f60201b60201c565b62000ca473dd974d5c2e2928dea5f71b9825b8b646686bd200731cc9567ea2eb740824a45f8026ccf8e46973234d6200137f60201b60201c565b62000cde732260fac5e5542a773aa44fbcfedf7c193bc2c59973ba9262578efef8b3aff7f60cd629d6cc8859c8b56200137f60201b60201c565b62000d1873a0b86991c6218b36c1d19d4a2e9eb0ce3606eb4873f013406a0b1d544238083df0b93ad0d2cbe0f65f6200137f60201b60201c565b62000d5273eeeeeeeeeeeeeeeeeeeeeeeeeeeeeeeeeeeeeeee7377f973fcaf871459aa58cd81881ce453759281bc6200137f60201b60201c565b62000d8c736b175474e89094c44da98b954eedeac495271d0f73493c57c4763932315a328269e1adad09653b90816200137f60201b60201c565b62000dc673514910771af9ca656af840dff83e8264ecf986ca731d496da96caf6b518b133736beca85d5c4f9cbc56200137f60201b60201c565b62000e007357ab1ec28d129707052df4df418d58a2d46d5f517349f4592e641820e928f9919ef4abd92a719b4b496200137f60201b60201c565b62000e2773eeeeeeeeeeeeeeeeeeeeeeeeeeeeeeeeeeeeeeee60006200148460201b60201c565b62000e4e73a0b86991c6218b36c1d19d4a2e9eb0ce3606eb4860026200148460201b60201c565b62000e75736b175474e89094c44da98b954eedeac495271d0f60036200148460201b60201c565b62000eaf736b175474e89094c44da98b954eedeac495271d0f739d25057e62939d3408406975ad75ffe834da4cdd6200154f60201b60201c565b62000ee973a0b86991c6218b36c1d19d4a2e9eb0ce3606eb4873a2609b2b43ac0f5ebe27deb944d2a399c201e3da6200154f60201b60201c565b62000f2373dac17f958d2ee523a2206206994597c13d831ec773a1787206d5b1be0f432c4c4f96dc4d1257a1dd146200154f60201b60201c565b62000f5d7357ab1ec28d129707052df4df418d58a2d46d5f517336324b8168f960a12a8fd01406c9c78143d413806200154f60201b60201c565b62000f97732260fac5e5542a773aa44fbcfedf7c193bc2c5997304ef8121ad039ff41d10029c91ea1694432514e96200154f60201b60201c565b620016ba565b600033905090565b62000fb56200165460201b60201c565b62001028576040517f08c379a00000000000000000000000000000000000000000000000000000000081526004018080602001828103825260208152602001807f4f776e61626c653a2063616c6c6572206973206e6f7420746865206f776e657281525060200191505060405180910390fd5b80600160008473ffffffffffffffffffffffffffffffffffffffff1673ffffffffffffffffffffffffffffffffffffffff168152602001908152602001600020819055505050565b620010806200165460201b60201c565b620010f3576040517f08c379a00000000000000000000000000000000000000000000000000000000081526004018080602001828103825260208152602001807f4f776e61626c653a2063616c6c6572206973206e6f7420746865206f776e657281525060200191505060405180910390fd5b80600260008473ffffffffffffffffffffffffffffffffffffffff1673ffffffffffffffffffffffffffffffffffffffff16815260200190815260200160002060006101000a81548173ffffffffffffffffffffffffffffffffffffffff021916908373ffffffffffffffffffffffffffffffffffffffff1602179055505050565b620011856200165460201b60201c565b620011f8576040517f08c379a00000000000000000000000000000000000000000000000000000000081526004018080602001828103825260208152602001807f4f776e61626c653a2063616c6c6572206973206e6f7420746865206f776e657281525060200191505060405180910390fd5b80600460008473ffffffffffffffffffffffffffffffffffffffff1673ffffffffffffffffffffffffffffffffffffffff16815260200190815260200160002060006101000a81548173ffffffffffffffffffffffffffffffffffffffff021916908373ffffffffffffffffffffffffffffffffffffffff1602179055505050565b6200128a6200165460201b60201c565b620012fd576040517f08c379a00000000000000000000000000000000000000000000000000000000081526004018080602001828103825260208152602001807f4f776e61626c653a2063616c6c6572206973206e6f7420746865206f776e657281525060200191505060405180910390fd5b80600560008473ffffffffffffffffffffffffffffffffffffffff1673ffffffffffffffffffffffffffffffffffffffff16815260200190815260200160002060006101000a81548173ffffffffffffffffffffffffffffffffffffffff021916908373ffffffffffffffffffffffffffffffffffffffff1602179055505050565b6200138f6200165460201b60201c565b62001402576040517f08c379a00000000000000000000000000000000000000000000000000000000081526004018080602001828103825260208152602001807f4f776e61626c653a2063616c6c6572206973206e6f7420746865206f776e657281525060200191505060405180910390fd5b80600360008473ffffffffffffffffffffffffffffffffffffffff1673ffffffffffffffffffffffffffffffffffffffff16815260200190815260200160002060006101000a81548173ffffffffffffffffffffffffffffffffffffffff021916908373ffffffffffffffffffffffffffffffffffffffff1602179055505050565b620014946200165460201b60201c565b62001507576040517f08c379a00000000000000000000000000000000000000000000000000000000081526004018080602001828103825260208152602001807f4f776e61626c653a2063616c6c6572206973206e6f7420746865206f776e657281525060200191505060405180910390fd5b80600660008473ffffffffffffffffffffffffffffffffffffffff1673ffffffffffffffffffffffffffffffffffffffff168152602001908152602001600020819055505050565b6200155f6200165460201b60201c565b620015d2576040517f08c379a00000000000000000000000000000000000000000000000000000000081526004018080602001828103825260208152602001807f4f776e61626c653a2063616c6c6572206973206e6f7420746865206f776e657281525060200191505060405180910390fd5b80600760008473ffffffffffffffffffffffffffffffffffffffff1673ffffffffffffffffffffffffffffffffffffffff16815260200190815260200160002060006101000a81548173ffffffffffffffffffffffffffffffffffffffff021916908373ffffffffffffffffffffffffffffffffffffffff1602179055505050565b60008060009054906101000a900473ffffffffffffffffffffffffffffffffffffffff1673ffffffffffffffffffffffffffffffffffffffff166200169e62000f9d60201b60201c565b73ffffffffffffffffffffffffffffffffffffffff1614905090565b6133b080620016ca6000396000f3fe608060405234801561001057600080fd5b50600436106101fb5760003560e01c8063832daf061161011a578063c205c6ef116100ad578063da07af331161007c578063da07af3314610d23578063e12fb3dd14610da7578063f0a60d0414610dff578063f2fde38b14610e83578063f60a15ed14610ec7576101fb565b8063c205c6ef14610aa1578063c4b5627314610af9578063d6542d4214610b43578063da03172e14610b8d576101fb565b8063a4063dbc116100e9578063a4063dbc14610924578063a9b946e91461097c578063acbeec7e146109c0578063bd30558e14610a57576101fb565b8063832daf06146107d05780638da5cb5b146108545780638f32d59b1461089e578063926021d7146108c0576101fb565b8063463574731161019257806370c364bd1161016157806370c364bd1461069a578063715018a61461071e57806377fe450014610728578063811711c71461076c576101fb565b80634635747314610544578063541bcb761461058857806363beafef146105d257806366f45ba614610636576101fb565b806328157bcb116101ce57806328157bcb146103e0578063284dac231461042e5780632e8d6e18146104b257806332a9caba146104f6576101fb565b80630849478e14610200578063146b9f70146102a15780631484029514610305578063149b38dd14610349575b600080fd5b61024c6004803603604081101561021657600080fd5b81019080803573ffffffffffffffffffffffffffffffffffffffff16906020019092919080359060200190929190505050610ed1565b604051808b81526020018a81526020018981526020018881526020018781526020018681526020018581526020018481526020018381526020018281526020019a505050505050505050505060405180910390f35b610303600480360360408110156102b757600080fd5b81019080803573ffffffffffffffffffffffffffffffffffffffff169060200190929190803573ffffffffffffffffffffffffffffffffffffffff169060200190929190505050611bb4565b005b6103476004803603602081101561031b57600080fd5b81019080803573ffffffffffffffffffffffffffffffffffffffff169060200190929190505050611cb0565b005b61038b6004803603602081101561035f57600080fd5b81019080803573ffffffffffffffffffffffffffffffffffffffff169060200190929190505050611d6e565b604051808b81526020018a81526020018981526020018881526020018781526020018681526020018581526020018481526020018381526020018281526020019a505050505050505050505060405180910390f35b61042c600480360360408110156103f657600080fd5b81019080803573ffffffffffffffffffffffffffffffffffffffff16906020019092919080359060200190929190505050611ecb565b005b6104706004803603602081101561044457600080fd5b81019080803573ffffffffffffffffffffffffffffffffffffffff169060200190929190505050611f8d565b604051808273ffffffffffffffffffffffffffffffffffffffff1673ffffffffffffffffffffffffffffffffffffffff16815260200191505060405180910390f35b6104f4600480360360208110156104c857600080fd5b81019080803573ffffffffffffffffffffffffffffffffffffffff169060200190929190505050611fc0565b005b6105426004803603604081101561050c57600080fd5b81019080803573ffffffffffffffffffffffffffffffffffffffff169060200190929190803590602001909291905050506121bd565b005b6105866004803603602081101561055a57600080fd5b81019080803573ffffffffffffffffffffffffffffffffffffffff16906020019092919050505061227f565b005b61059061233d565b604051808273ffffffffffffffffffffffffffffffffffffffff1673ffffffffffffffffffffffffffffffffffffffff16815260200191505060405180910390f35b610634600480360360408110156105e857600080fd5b81019080803573ffffffffffffffffffffffffffffffffffffffff169060200190929190803573ffffffffffffffffffffffffffffffffffffffff169060200190929190505050612363565b005b6106986004803603604081101561064c57600080fd5b81019080803573ffffffffffffffffffffffffffffffffffffffff169060200190929190803573ffffffffffffffffffffffffffffffffffffffff16906020019092919050505061245f565b005b6106dc600480360360208110156106b057600080fd5b81019080803573ffffffffffffffffffffffffffffffffffffffff16906020019092919050505061255b565b604051808273ffffffffffffffffffffffffffffffffffffffff1673ffffffffffffffffffffffffffffffffffffffff16815260200191505060405180910390f35b61072661258e565b005b61076a6004803603602081101561073e57600080fd5b81019080803573ffffffffffffffffffffffffffffffffffffffff1690602001909291905050506126c7565b005b6107ce6004803603604081101561078257600080fd5b81019080803573ffffffffffffffffffffffffffffffffffffffff169060200190929190803573ffffffffffffffffffffffffffffffffffffffff169060200190929190505050612785565b005b610812600480360360208110156107e657600080fd5b81019080803573ffffffffffffffffffffffffffffffffffffffff169060200190929190505050612881565b604051808273ffffffffffffffffffffffffffffffffffffffff1673ffffffffffffffffffffffffffffffffffffffff16815260200191505060405180910390f35b61085c6128b4565b604051808273ffffffffffffffffffffffffffffffffffffffff1673ffffffffffffffffffffffffffffffffffffffff16815260200191505060405180910390f35b6108a66128dd565b604051808215151515815260200191505060405180910390f35b610922600480360360408110156108d657600080fd5b81019080803573ffffffffffffffffffffffffffffffffffffffff169060200190929190803573ffffffffffffffffffffffffffffffffffffffff16906020019092919050505061293b565b005b6109666004803603602081101561093a57600080fd5b81019080803573ffffffffffffffffffffffffffffffffffffffff169060200190929190505050612a37565b6040518082815260200191505060405180910390f35b6109be6004803603602081101561099257600080fd5b81019080803573ffffffffffffffffffffffffffffffffffffffff169060200190929190505050612a4f565b005b610a02600480360360208110156109d657600080fd5b81019080803573ffffffffffffffffffffffffffffffffffffffff169060200190929190505050612b0d565b604051808b81526020018a81526020018981526020018881526020018781526020018681526020018581526020018481526020018381526020018281526020019a505050505050505050505060405180910390f35b610a5f612b48565b604051808273ffffffffffffffffffffffffffffffffffffffff1673ffffffffffffffffffffffffffffffffffffffff16815260200191505060405180910390f35b610ae360048036036020811015610ab757600080fd5b81019080803573ffffffffffffffffffffffffffffffffffffffff169060200190929190505050612b6e565b6040518082815260200191505060405180910390f35b610b01612b86565b604051808273ffffffffffffffffffffffffffffffffffffffff1673ffffffffffffffffffffffffffffffffffffffff16815260200191505060405180910390f35b610b4b612bac565b604051808273ffffffffffffffffffffffffffffffffffffffff1673ffffffffffffffffffffffffffffffffffffffff16815260200191505060405180910390f35b610bcf60048036036020811015610ba357600080fd5b81019080803573ffffffffffffffffffffffffffffffffffffffff169060200190929190505050612bd2565b604051808673ffffffffffffffffffffffffffffffffffffffff1673ffffffffffffffffffffffffffffffffffffffff1681526020018573ffffffffffffffffffffffffffffffffffffffff1673ffffffffffffffffffffffffffffffffffffffff1681526020018481526020018060200180602001838103835285818151815260200191508051906020019080838360005b83811015610c7d578082015181840152602081019050610c62565b50505050905090810190601f168015610caa5780820380516001836020036101000a031916815260200191505b50838103825284818151815260200191508051906020019080838360005b83811015610ce3578082015181840152602081019050610cc8565b50505050905090810190601f168015610d105780820380516001836020036101000a031916815260200191505b5097505050505050505060405180910390f35b610d6560048036036020811015610d3957600080fd5b81019080803573ffffffffffffffffffffffffffffffffffffffff169060200190929190505050612f95565b604051808273ffffffffffffffffffffffffffffffffffffffff1673ffffffffffffffffffffffffffffffffffffffff16815260200191505060405180910390f35b610de960048036036020811015610dbd57600080fd5b81019080803573ffffffffffffffffffffffffffffffffffffffff169060200190929190505050612fc8565b6040518082815260200191505060405180910390f35b610e4160048036036020811015610e1557600080fd5b81019080803573ffffffffffffffffffffffffffffffffffffffff169060200190929190505050612fe0565b604051808273ffffffffffffffffffffffffffffffffffffffff1673ffffffffffffffffffffffffffffffffffffffff16815260200191505060405180910390f35b610ec560048036036020811015610e9957600080fd5b81019080803573ffffffffffffffffffffffffffffffffffffffff169060200190929190505050613013565b005b610ecf613099565b005b6000806000806000806000806000806000600160008e73ffffffffffffffffffffffffffffffffffffffff1673ffffffffffffffffffffffffffffffffffffffff168152602001908152602001600020549050600081111561101257600b60009054906101000a900473ffffffffffffffffffffffffffffffffffffffff1673ffffffffffffffffffffffffffffffffffffffff16638bd917eb8e836040518363ffffffff1660e01b8152600401808373ffffffffffffffffffffffffffffffffffffffff1673ffffffffffffffffffffffffffffffffffffffff1681526020018281526020019250505060206040518083038186803b158015610fd457600080fd5b505afa158015610fe8573d6000803e3d6000fd5b505050506040513d6020811015610ffe57600080fd5b81019080805190602001909291905050509a505b6000600260008f73ffffffffffffffffffffffffffffffffffffffff1673ffffffffffffffffffffffffffffffffffffffff16815260200190815260200160002060009054906101000a900473ffffffffffffffffffffffffffffffffffffffff169050600073ffffffffffffffffffffffffffffffffffffffff168173ffffffffffffffffffffffffffffffffffffffff16146112b757600c60009054906101000a900473ffffffffffffffffffffffffffffffffffffffff1673ffffffffffffffffffffffffffffffffffffffff166344e258b4826040518263ffffffff1660e01b8152600401808273ffffffffffffffffffffffffffffffffffffffff1673ffffffffffffffffffffffffffffffffffffffff16815260200191505060206040518083038186803b15801561114957600080fd5b505afa15801561115d573d6000803e3d6000fd5b505050506040513d602081101561117357600080fd5b81019080805190602001909291905050509a50600160008273ffffffffffffffffffffffffffffffffffffffff1673ffffffffffffffffffffffffffffffffffffffff16815260200190815260200160002054915060008211156112b657600b60009054906101000a900473ffffffffffffffffffffffffffffffffffffffff1673ffffffffffffffffffffffffffffffffffffffff16638bd917eb82846040518363ffffffff1660e01b8152600401808373ffffffffffffffffffffffffffffffffffffffff1673ffffffffffffffffffffffffffffffffffffffff1681526020018281526020019250505060206040518083038186803b15801561127857600080fd5b505afa15801561128c573d6000803e3d6000fd5b505050506040513d60208110156112a257600080fd5b810190808051906020019092919050505099505b5b600360008f73ffffffffffffffffffffffffffffffffffffffff1673ffffffffffffffffffffffffffffffffffffffff16815260200190815260200160002060009054906101000a900473ffffffffffffffffffffffffffffffffffffffff169050600073ffffffffffffffffffffffffffffffffffffffff168173ffffffffffffffffffffffffffffffffffffffff161461156257600c60009054906101000a900473ffffffffffffffffffffffffffffffffffffffff1673ffffffffffffffffffffffffffffffffffffffff16634eff75d8828f6040518363ffffffff1660e01b8152600401808373ffffffffffffffffffffffffffffffffffffffff1673ffffffffffffffffffffffffffffffffffffffff1681526020018281526020019250505060206040518083038186803b1580156113f457600080fd5b505afa158015611408573d6000803e3d6000fd5b505050506040513d602081101561141e57600080fd5b81019080805190602001909291905050509850600160008273ffffffffffffffffffffffffffffffffffffffff1673ffffffffffffffffffffffffffffffffffffffff168152602001908152602001600020549150600082111561156157600b60009054906101000a900473ffffffffffffffffffffffffffffffffffffffff1673ffffffffffffffffffffffffffffffffffffffff16638bd917eb82846040518363ffffffff1660e01b8152600401808373ffffffffffffffffffffffffffffffffffffffff1673ffffffffffffffffffffffffffffffffffffffff1681526020018281526020019250505060206040518083038186803b15801561152357600080fd5b505afa158015611537573d6000803e3d6000fd5b505050506040513d602081101561154d57600080fd5b810190808051906020019092919050505097505b5b600460008f73ffffffffffffffffffffffffffffffffffffffff1673ffffffffffffffffffffffffffffffffffffffff16815260200190815260200160002060009054906101000a900473ffffffffffffffffffffffffffffffffffffffff169050600073ffffffffffffffffffffffffffffffffffffffff168173ffffffffffffffffffffffffffffffffffffffff161461186f57600c60009054906101000a900473ffffffffffffffffffffffffffffffffffffffff1673ffffffffffffffffffffffffffffffffffffffff1663989eaa9c828f6040518363ffffffff1660e01b8152600401808373ffffffffffffffffffffffffffffffffffffffff1673ffffffffffffffffffffffffffffffffffffffff1681526020018281526020019250505060206040518083038186803b15801561169f57600080fd5b505afa1580156116b3573d6000803e3d6000fd5b505050506040513d60208110156116c957600080fd5b81019080805190602001909291905050509650600560008f73ffffffffffffffffffffffffffffffffffffffff1673ffffffffffffffffffffffffffffffffffffffff16815260200190815260200160002060009054906101000a900473ffffffffffffffffffffffffffffffffffffffff169050600160008273ffffffffffffffffffffffffffffffffffffffff1673ffffffffffffffffffffffffffffffffffffffff168152602001908152602001600020549150600082111561186e57600b60009054906101000a900473ffffffffffffffffffffffffffffffffffffffff1673ffffffffffffffffffffffffffffffffffffffff16638bd917eb82846040518363ffffffff1660e01b8152600401808373ffffffffffffffffffffffffffffffffffffffff1673ffffffffffffffffffffffffffffffffffffffff1681526020018281526020019250505060206040518083038186803b15801561183057600080fd5b505afa158015611844573d6000803e3d6000fd5b505050506040513d602081101561185a57600080fd5b810190808051906020019092919050505095505b5b600660008f73ffffffffffffffffffffffffffffffffffffffff1673ffffffffffffffffffffffffffffffffffffffff16815260200190815260200160002054945060008511806118ff575073eeeeeeeeeeeeeeeeeeeeeeeeeeeeeeeeeeeeeeee73ffffffffffffffffffffffffffffffffffffffff168e73ffffffffffffffffffffffffffffffffffffffff16145b156119bd57600c60009054906101000a900473ffffffffffffffffffffffffffffffffffffffff1673ffffffffffffffffffffffffffffffffffffffff1663fcc01c7b868f6040518363ffffffff1660e01b8152600401808381526020018281526020019250505060206040518083038186803b15801561197f57600080fd5b505afa158015611993573d6000803e3d6000fd5b505050506040513d60208110156119a957600080fd5b810190808051906020019092919050505094505b600c60009054906101000a900473ffffffffffffffffffffffffffffffffffffffff1673ffffffffffffffffffffffffffffffffffffffff166373824dae8f8f6040518363ffffffff1660e01b8152600401808373ffffffffffffffffffffffffffffffffffffffff1673ffffffffffffffffffffffffffffffffffffffff1681526020018281526020019250505060206040518083038186803b158015611a6457600080fd5b505afa158015611a78573d6000803e3d6000fd5b505050506040513d6020811015611a8e57600080fd5b81019080805190602001909291905050509350600c60009054906101000a900473ffffffffffffffffffffffffffffffffffffffff1673ffffffffffffffffffffffffffffffffffffffff16630e775fd58f8f6040518363ffffffff1660e01b8152600401808373ffffffffffffffffffffffffffffffffffffffff1673ffffffffffffffffffffffffffffffffffffffff1681526020018281526020019250505060206040518083038186803b158015611b4857600080fd5b505afa158015611b5c573d6000803e3d6000fd5b505050506040513d6020811015611b7257600080fd5b810190808051906020019092919050505092508b8b8b8b8b8b8b8b8b8b9b509b509b509b509b509b509b509b509b509b5050509295989b9194979a5092959850565b611bbc6128dd565b611c2e576040517f08c379a00000000000000000000000000000000000000000000000000000000081526004018080602001828103825260208152602001807f4f776e61626c653a2063616c6c6572206973206e6f7420746865206f776e657281525060200191505060405180910390fd5b80600260008473ffffffffffffffffffffffffffffffffffffffff1673ffffffffffffffffffffffffffffffffffffffff16815260200190815260200160002060006101000a81548173ffffffffffffffffffffffffffffffffffffffff021916908373ffffffffffffffffffffffffffffffffffffffff1602179055505050565b611cb86128dd565b611d2a576040517f08c379a00000000000000000000000000000000000000000000000000000000081526004018080602001828103825260208152602001807f4f776e61626c653a2063616c6c6572206973206e6f7420746865206f776e657281525060200191505060405180910390fd5b80600960006101000a81548173ffffffffffffffffffffffffffffffffffffffff021916908373ffffffffffffffffffffffffffffffffffffffff16021790555050565b6000806000806000806000806000806000600760008d73ffffffffffffffffffffffffffffffffffffffff1673ffffffffffffffffffffffffffffffffffffffff16815260200190815260200160002060009054906101000a900473ffffffffffffffffffffffffffffffffffffffff1690506000809050600073ffffffffffffffffffffffffffffffffffffffff168273ffffffffffffffffffffffffffffffffffffffff1614611e9e578173ffffffffffffffffffffffffffffffffffffffff16637137ef996040518163ffffffff1660e01b815260040160206040518083038186803b158015611e6057600080fd5b505afa158015611e74573d6000803e3d6000fd5b505050506040513d6020811015611e8a57600080fd5b810190808051906020019092919050505090505b611ea88d82610ed1565b9b509b509b509b509b509b509b509b509b509b5050509193959799509193959799565b611ed36128dd565b611f45576040517f08c379a00000000000000000000000000000000000000000000000000000000081526004018080602001828103825260208152602001807f4f776e61626c653a2063616c6c6572206973206e6f7420746865206f776e657281525060200191505060405180910390fd5b80600660008473ffffffffffffffffffffffffffffffffffffffff1673ffffffffffffffffffffffffffffffffffffffff168152602001908152602001600020819055505050565b60026020528060005260406000206000915054906101000a900473ffffffffffffffffffffffffffffffffffffffff1681565b611fc86128dd565b61203a576040517f08c379a00000000000000000000000000000000000000000000000000000000081526004018080602001828103825260208152602001807f4f776e61626c653a2063616c6c6572206973206e6f7420746865206f776e657281525060200191505060405180910390fd5b60008173ffffffffffffffffffffffffffffffffffffffff166370a08231306040518263ffffffff1660e01b8152600401808273ffffffffffffffffffffffffffffffffffffffff1673ffffffffffffffffffffffffffffffffffffffff16815260200191505060206040518083038186803b1580156120b957600080fd5b505afa1580156120cd573d6000803e3d6000fd5b505050506040513d60208110156120e357600080fd5b810190808051906020019092919050505090508173ffffffffffffffffffffffffffffffffffffffff1663a9059cbb33836040518363ffffffff1660e01b8152600401808373ffffffffffffffffffffffffffffffffffffffff1673ffffffffffffffffffffffffffffffffffffffff16815260200182815260200192505050602060405180830381600087803b15801561217d57600080fd5b505af1158015612191573d6000803e3d6000fd5b505050506040513d60208110156121a757600080fd5b8101908080519060200190929190505050505050565b6121c56128dd565b612237576040517f08c379a00000000000000000000000000000000000000000000000000000000081526004018080602001828103825260208152602001807f4f776e61626c653a2063616c6c6572206973206e6f7420746865206f776e657281525060200191505060405180910390fd5b80600160008473ffffffffffffffffffffffffffffffffffffffff1673ffffffffffffffffffffffffffffffffffffffff168152602001908152602001600020819055505050565b6122876128dd565b6122f9576040517f08c379a00000000000000000000000000000000000000000000000000000000081526004018080602001828103825260208152602001807f4f776e61626c653a2063616c6c6572206973206e6f7420746865206f776e657281525060200191505060405180910390fd5b80600c60006101000a81548173ffffffffffffffffffffffffffffffffffffffff021916908373ffffffffffffffffffffffffffffffffffffffff16021790555050565b600960009054906101000a900473ffffffffffffffffffffffffffffffffffffffff1681565b61236b6128dd565b6123dd576040517f08c379a00000000000000000000000000000000000000000000000000000000081526004018080602001828103825260208152602001807f4f776e61626c653a2063616c6c6572206973206e6f7420746865206f776e657281525060200191505060405180910390fd5b80600560008473ffffffffffffffffffffffffffffffffffffffff1673ffffffffffffffffffffffffffffffffffffffff16815260200190815260200160002060006101000a81548173ffffffffffffffffffffffffffffffffffffffff021916908373ffffffffffffffffffffffffffffffffffffffff1602179055505050565b6124676128dd565b6124d9576040517f08c379a00000000000000000000000000000000000000000000000000000000081526004018080602001828103825260208152602001807f4f776e61626c653a2063616c6c6572206973206e6f7420746865206f776e657281525060200191505060405180910390fd5b80600760008473ffffffffffffffffffffffffffffffffffffffff1673ffffffffffffffffffffffffffffffffffffffff16815260200190815260200160002060006101000a81548173ffffffffffffffffffffffffffffffffffffffff021916908373ffffffffffffffffffffffffffffffffffffffff1602179055505050565b60036020528060005260406000206000915054906101000a900473ffffffffffffffffffffffffffffffffffffffff1681565b6125966128dd565b612608576040517f08c379a00000000000000000000000000000000000000000000000000000000081526004018080602001828103825260208152602001807f4f776e61626c653a2063616c6c6572206973206e6f7420746865206f776e657281525060200191505060405180910390fd5b600073ffffffffffffffffffffffffffffffffffffffff166000809054906101000a900473ffffffffffffffffffffffffffffffffffffffff1673ffffffffffffffffffffffffffffffffffffffff167f8be0079c531659141344cd1fd0a4f28419497f9722a3daafe3b4186f6b6457e060405160405180910390a360008060006101000a81548173ffffffffffffffffffffffffffffffffffffffff021916908373ffffffffffffffffffffffffffffffffffffffff160217905550565b6126cf6128dd565b612741576040517f08c379a00000000000000000000000000000000000000000000000000000000081526004018080602001828103825260208152602001807f4f776e61626c653a2063616c6c6572206973206e6f7420746865206f776e657281525060200191505060405180910390fd5b80600b60006101000a81548173ffffffffffffffffffffffffffffffffffffffff021916908373ffffffffffffffffffffffffffffffffffffffff16021790555050565b61278d6128dd565b6127ff576040517f08c379a00000000000000000000000000000000000000000000000000000000081526004018080602001828103825260208152602001807f4f776e61626c653a2063616c6c6572206973206e6f7420746865206f776e657281525060200191505060405180910390fd5b80600460008473ffffffffffffffffffffffffffffffffffffffff1673ffffffffffffffffffffffffffffffffffffffff16815260200190815260200160002060006101000a81548173ffffffffffffffffffffffffffffffffffffffff021916908373ffffffffffffffffffffffffffffffffffffffff1602179055505050565b60056020528060005260406000206000915054906101000a900473ffffffffffffffffffffffffffffffffffffffff1681565b60008060009054906101000a900473ffffffffffffffffffffffffffffffffffffffff16905090565b60008060009054906101000a900473ffffffffffffffffffffffffffffffffffffffff1673ffffffffffffffffffffffffffffffffffffffff1661291f613209565b73ffffffffffffffffffffffffffffffffffffffff1614905090565b6129436128dd565b6129b5576040517f08c379a00000000000000000000000000000000000000000000000000000000081526004018080602001828103825260208152602001807f4f776e61626c653a2063616c6c6572206973206e6f7420746865206f776e657281525060200191505060405180910390fd5b80600360008473ffffffffffffffffffffffffffffffffffffffff1673ffffffffffffffffffffffffffffffffffffffff16815260200190815260200160002060006101000a81548173ffffffffffffffffffffffffffffffffffffffff021916908373ffffffffffffffffffffffffffffffffffffffff1602179055505050565b60016020528060005260406000206000915090505481565b612a576128dd565b612ac9576040517f08c379a00000000000000000000000000000000000000000000000000000000081526004018080602001828103825260208152602001807f4f776e61626c653a2063616c6c6572206973206e6f7420746865206f776e657281525060200191505060405180910390fd5b80600a60006101000a81548173ffffffffffffffffffffffffffffffffffffffff021916908373ffffffffffffffffffffffffffffffffffffffff16021790555050565b600080600080600080600080600080612b278b6000610ed1565b99509950995099509950995099509950995099509193959799509193959799565b600c60009054906101000a900473ffffffffffffffffffffffffffffffffffffffff1681565b60066020528060005260406000206000915090505481565b600a60009054906101000a900473ffffffffffffffffffffffffffffffffffffffff1681565b600b60009054906101000a900473ffffffffffffffffffffffffffffffffffffffff1681565b6000806000606080859450600960009054906101000a900473ffffffffffffffffffffffffffffffffffffffff1673ffffffffffffffffffffffffffffffffffffffff166306f2bf62876040518263ffffffff1660e01b8152600401808273ffffffffffffffffffffffffffffffffffffffff1673ffffffffffffffffffffffffffffffffffffffff16815260200191505060206040518083038186803b158015612c7c57600080fd5b505afa158015612c90573d6000803e3d6000fd5b505050506040513d6020811015612ca657600080fd5b81019080805190602001909291905050509350600160008773ffffffffffffffffffffffffffffffffffffffff1673ffffffffffffffffffffffffffffffffffffffff1681526020019081526020016000205492508573ffffffffffffffffffffffffffffffffffffffff166306fdde036040518163ffffffff1660e01b815260040160006040518083038186803b158015612d4157600080fd5b505afa158015612d55573d6000803e3d6000fd5b505050506040513d6000823e3d601f19601f820116820180604052506020811015612d7f57600080fd5b8101908080516040519392919084640100000000821115612d9f57600080fd5b83820191506020820185811115612db557600080fd5b8251866001820283011164010000000082111715612dd257600080fd5b8083526020830192505050908051906020019080838360005b83811015612e06578082015181840152602081019050612deb565b50505050905090810190601f168015612e335780820380516001836020036101000a031916815260200191505b5060405250505091508573ffffffffffffffffffffffffffffffffffffffff166395d89b416040518163ffffffff1660e01b815260040160006040518083038186803b158015612e8257600080fd5b505afa158015612e96573d6000803e3d6000fd5b505050506040513d6000823e3d601f19601f820116820180604052506020811015612ec057600080fd5b8101908080516040519392919084640100000000821115612ee057600080fd5b83820191506020820185811115612ef657600080fd5b8251866001820283011164010000000082111715612f1357600080fd5b8083526020830192505050908051906020019080838360005b83811015612f47578082015181840152602081019050612f2c565b50505050905090810190601f168015612f745780820380516001836020036101000a031916815260200191505b50604052505050905084848484849450945094509450945091939590929450565b60046020528060005260406000206000915054906101000a900473ffffffffffffffffffffffffffffffffffffffff1681565b60086020528060005260406000206000915090505481565b60076020528060005260406000206000915054906101000a900473ffffffffffffffffffffffffffffffffffffffff1681565b61301b6128dd565b61308d576040517f08c379a00000000000000000000000000000000000000000000000000000000081526004018080602001828103825260208152602001807f4f776e61626c653a2063616c6c6572206973206e6f7420746865206f776e657281525060200191505060405180910390fd5b61309681613211565b50565b6130a16128dd565b613113576040517f08c379a00000000000000000000000000000000000000000000000000000000081526004018080602001828103825260208152602001807f4f776e61626c653a2063616c6c6572206973206e6f7420746865206f776e657281525060200191505060405180910390fd5b60003373ffffffffffffffffffffffffffffffffffffffff163073ffffffffffffffffffffffffffffffffffffffff163160405180600001905060006040518083038185875af1925050503d806000811461318a576040519150601f19603f3d011682016040523d82523d6000602084013e61318f565b606091505b5050905080613206576040517f08c379a00000000000000000000000000000000000000000000000000000000081526004018080602001828103825260168152602001807f7472616e73666572206f6620455448206661696c65640000000000000000000081525060200191505060405180910390fd5b50565b600033905090565b600073ffffffffffffffffffffffffffffffffffffffff168173ffffffffffffffffffffffffffffffffffffffff161415613297576040517f08c379a00000000000000000000000000000000000000000000000000000000081526004018080602001828103825260268152602001806133566026913960400191505060405180910390fd5b8073ffffffffffffffffffffffffffffffffffffffff166000809054906101000a900473ffffffffffffffffffffffffffffffffffffffff1673ffffffffffffffffffffffffffffffffffffffff167f8be0079c531659141344cd1fd0a4f28419497f9722a3daafe3b4186f6b6457e060405160405180910390a3806000806101000a81548173ffffffffffffffffffffffffffffffffffffffff021916908373ffffffffffffffffffffffffffffffffffffffff1602179055505056fe4f776e61626c653a206e6577206f776e657220697320746865207a65726f2061646472657373a265627a7a72315820854a93cb5b08316c98663647f40263b8b5837cdc36b4d21f85b4aedafac029f764736f6c634300050c0032",
  "source": "\r\n// File: @openzeppelin\\contracts\\token\\ERC20\\IERC20.sol\r\n\r\npragma solidity ^0.5.0;\r\n\r\ninterface IERC20 {\r\n\r\n    function totalSupply() external view returns (uint256);\r\n    function balanceOf(address account) external view returns (uint256);\r\n    function name() external view returns (string memory);\r\n    function symbol() external view returns (string memory);\r\n    function transfer(address recipient, uint256 amount) external returns (bool);\r\n}\r\n\r\n// File: @openzeppelin\\contracts\\GSN\\Context.sol\r\n\r\npragma solidity ^0.5.0;\r\n\r\n/*\r\n * @dev Provides information about the current execution context, including the\r\n * sender of the transaction and its data. While these are generally available\r\n * via msg.sender and msg.data, they should not be accessed in such a direct\r\n * manner, since when dealing with GSN meta-transactions the account sending and\r\n * paying for execution may not be the actual sender (as far as an application\r\n * is concerned).\r\n *\r\n * This contract is only required for intermediate, library-like contracts.\r\n */\r\ncontract Context {\r\n    // Empty internal constructor, to prevent people from mistakenly deploying\r\n    // an instance of this contract, which should be used via inheritance.\r\n    constructor () internal { }\r\n    // solhint-disable-previous-line no-empty-blocks\r\n\r\n    function _msgSender() internal view returns (address payable) {\r\n        return msg.sender;\r\n    }\r\n\r\n    function _msgData() internal view returns (bytes memory) {\r\n        this; // silence state mutability warning without generating bytecode - see https://github.com/ethereum/solidity/issues/2691\r\n        return msg.data;\r\n    }\r\n}\r\n\r\n// File: @openzeppelin\\contracts\\ownership\\Ownable.sol\r\n\r\npragma solidity ^0.5.0;\r\n\r\n/**\r\n * @dev Contract module which provides a basic access control mechanism, where\r\n * there is an account (an owner) that can be granted exclusive access to\r\n * specific functions.\r\n *\r\n * This module is used through inheritance. It will make available the modifier\r\n * `onlyOwner`, which can be applied to your functions to restrict their use to\r\n * the owner.\r\n */\r\ncontract Ownable is Context {\r\n    address private _owner;\r\n\r\n    event OwnershipTransferred(address indexed previousOwner, address indexed newOwner);\r\n\r\n    /**\r\n     * @dev Initializes the contract setting the deployer as the initial owner.\r\n     */\r\n    constructor () internal {\r\n        _owner = _msgSender();\r\n        emit OwnershipTransferred(address(0), _owner);\r\n    }\r\n\r\n    /**\r\n     * @dev Returns the address of the current owner.\r\n     */\r\n    function owner() public view returns (address) {\r\n        return _owner;\r\n    }\r\n\r\n    /**\r\n     * @dev Throws if called by any account other than the owner.\r\n     */\r\n    modifier onlyOwner() {\r\n        require(isOwner(), \"Ownable: caller is not the owner\");\r\n        _;\r\n    }\r\n\r\n    /**\r\n     * @dev Returns true if the caller is the current owner.\r\n     */\r\n    function isOwner() public view returns (bool) {\r\n        return _msgSender() == _owner;\r\n    }\r\n\r\n    /**\r\n     * @dev Leaves the contract without owner. It will not be possible to call\r\n     * `onlyOwner` functions anymore. Can only be called by the current owner.\r\n     *\r\n     * NOTE: Renouncing ownership will leave the contract without an owner,\r\n     * thereby removing any functionality that is only available to the owner.\r\n     */\r\n    function renounceOwnership() public onlyOwner {\r\n        emit OwnershipTransferred(_owner, address(0));\r\n        _owner = address(0);\r\n    }\r\n\r\n    /**\r\n     * @dev Transfers ownership of the contract to a new account (`newOwner`).\r\n     * Can only be called by the current owner.\r\n     */\r\n    function transferOwnership(address newOwner) public onlyOwner {\r\n        _transferOwnership(newOwner);\r\n    }\r\n\r\n    /**\r\n     * @dev Transfers ownership of the contract to a new account (`newOwner`).\r\n     */\r\n    function _transferOwnership(address newOwner) internal {\r\n        require(newOwner != address(0), \"Ownable: new owner is the zero address\");\r\n        emit OwnershipTransferred(_owner, newOwner);\r\n        _owner = newOwner;\r\n    }\r\n}\r\n\r\n// File: @openzeppelin\\contracts\\math\\SafeMath.sol\r\n\r\npragma solidity ^0.5.0;\r\n\r\n/**\r\n * @dev Wrappers over Solidity's arithmetic operations with added overflow\r\n * checks.\r\n *\r\n * Arithmetic operations in Solidity wrap on overflow. This can easily result\r\n * in bugs, because programmers usually assume that an overflow raises an\r\n * error, which is the standard behavior in high level programming languages.\r\n * `SafeMath` restores this intuition by reverting the transaction when an\r\n * operation overflows.\r\n *\r\n * Using this library instead of the unchecked operations eliminates an entire\r\n * class of bugs, so it's recommended to use it always.\r\n */\r\nlibrary SafeMath {\r\n    /**\r\n     * @dev Returns the addition of two unsigned integers, reverting on\r\n     * overflow.\r\n     *\r\n     * Counterpart to Solidity's `+` operator.\r\n     *\r\n     * Requirements:\r\n     * - Addition cannot overflow.\r\n     */\r\n    function add(uint256 a, uint256 b) internal pure returns (uint256) {\r\n        uint256 c = a + b;\r\n        require(c >= a, \"SafeMath: addition overflow\");\r\n\r\n        return c;\r\n    }\r\n\r\n    /**\r\n     * @dev Returns the subtraction of two unsigned integers, reverting on\r\n     * overflow (when the result is negative).\r\n     *\r\n     * Counterpart to Solidity's `-` operator.\r\n     *\r\n     * Requirements:\r\n     * - Subtraction cannot overflow.\r\n     */\r\n    function sub(uint256 a, uint256 b) internal pure returns (uint256) {\r\n        return sub(a, b, \"SafeMath: subtraction overflow\");\r\n    }\r\n\r\n    /**\r\n     * @dev Returns the subtraction of two unsigned integers, reverting with custom message on\r\n     * overflow (when the result is negative).\r\n     *\r\n     * Counterpart to Solidity's `-` operator.\r\n     *\r\n     * Requirements:\r\n     * - Subtraction cannot overflow.\r\n     *\r\n     * _Available since v2.4.0._\r\n     */\r\n    function sub(uint256 a, uint256 b, string memory errorMessage) internal pure returns (uint256) {\r\n        require(b <= a, errorMessage);\r\n        uint256 c = a - b;\r\n\r\n        return c;\r\n    }\r\n\r\n    /**\r\n     * @dev Returns the multiplication of two unsigned integers, reverting on\r\n     * overflow.\r\n     *\r\n     * Counterpart to Solidity's `*` operator.\r\n     *\r\n     * Requirements:\r\n     * - Multiplication cannot overflow.\r\n     */\r\n    function mul(uint256 a, uint256 b) internal pure returns (uint256) {\r\n        // Gas optimization: this is cheaper than requiring 'a' not being zero, but the\r\n        // benefit is lost if 'b' is also tested.\r\n        // See: https://github.com/OpenZeppelin/openzeppelin-contracts/pull/522\r\n        if (a == 0) {\r\n            return 0;\r\n        }\r\n\r\n        uint256 c = a * b;\r\n        require(c / a == b, \"SafeMath: multiplication overflow\");\r\n\r\n        return c;\r\n    }\r\n\r\n    /**\r\n     * @dev Returns the integer division of two unsigned integers. Reverts on\r\n     * division by zero. The result is rounded towards zero.\r\n     *\r\n     * Counterpart to Solidity's `/` operator. Note: this function uses a\r\n     * `revert` opcode (which leaves remaining gas untouched) while Solidity\r\n     * uses an invalid opcode to revert (consuming all remaining gas).\r\n     *\r\n     * Requirements:\r\n     * - The divisor cannot be zero.\r\n     */\r\n    function div(uint256 a, uint256 b) internal pure returns (uint256) {\r\n        return div(a, b, \"SafeMath: division by zero\");\r\n    }\r\n\r\n    /**\r\n     * @dev Returns the integer division of two unsigned integers. Reverts with custom message on\r\n     * division by zero. The result is rounded towards zero.\r\n     *\r\n     * Counterpart to Solidity's `/` operator. Note: this function uses a\r\n     * `revert` opcode (which leaves remaining gas untouched) while Solidity\r\n     * uses an invalid opcode to revert (consuming all remaining gas).\r\n     *\r\n     * Requirements:\r\n     * - The divisor cannot be zero.\r\n     *\r\n     * _Available since v2.4.0._\r\n     */\r\n    function div(uint256 a, uint256 b, string memory errorMessage) internal pure returns (uint256) {\r\n        // Solidity only automatically asserts when dividing by 0\r\n        require(b > 0, errorMessage);\r\n        uint256 c = a / b;\r\n        // assert(a == b * c + a % b); // There is no case in which this doesn't hold\r\n\r\n        return c;\r\n    }\r\n\r\n    /**\r\n     * @dev Returns the remainder of dividing two unsigned integers. (unsigned integer modulo),\r\n     * Reverts when dividing by zero.\r\n     *\r\n     * Counterpart to Solidity's `%` operator. This function uses a `revert`\r\n     * opcode (which leaves remaining gas untouched) while Solidity uses an\r\n     * invalid opcode to revert (consuming all remaining gas).\r\n     *\r\n     * Requirements:\r\n     * - The divisor cannot be zero.\r\n     */\r\n    function mod(uint256 a, uint256 b) internal pure returns (uint256) {\r\n        return mod(a, b, \"SafeMath: modulo by zero\");\r\n    }\r\n\r\n    /**\r\n     * @dev Returns the remainder of dividing two unsigned integers. (unsigned integer modulo),\r\n     * Reverts with custom message when dividing by zero.\r\n     *\r\n     * Counterpart to Solidity's `%` operator. This function uses a `revert`\r\n     * opcode (which leaves remaining gas untouched) while Solidity uses an\r\n     * invalid opcode to revert (consuming all remaining gas).\r\n     *\r\n     * Requirements:\r\n     * - The divisor cannot be zero.\r\n     *\r\n     * _Available since v2.4.0._\r\n     */\r\n    function mod(uint256 a, uint256 b, string memory errorMessage) internal pure returns (uint256) {\r\n        require(b != 0, errorMessage);\r\n        return a % b;\r\n    }\r\n}\r\n\r\n// File: @openzeppelin\\contracts\\utils\\Address.sol\r\n\r\npragma solidity ^0.5.5;\r\n\r\n/**\r\n * @dev Collection of functions related to the address type\r\n */\r\nlibrary Address {\r\n    /**\r\n     * @dev Returns true if `account` is a contract.\r\n     *\r\n     * This test is non-exhaustive, and there may be false-negatives: during the\r\n     * execution of a contract's constructor, its address will be reported as\r\n     * not containing a contract.\r\n     *\r\n     * IMPORTANT: It is unsafe to assume that an address for which this\r\n     * function returns false is an externally-owned account (EOA) and not a\r\n     * contract.\r\n     */\r\n    function isContract(address account) internal view returns (bool) {\r\n        // This method relies in extcodesize, which returns 0 for contracts in\r\n        // construction, since the code is only stored at the end of the\r\n        // constructor execution.\r\n\r\n        // According to EIP-1052, 0x0 is the value returned for not-yet created accounts\r\n        // and 0xc5d2460186f7233c927e7db2dcc703c0e500b653ca82273b7bfad8045d85a470 is returned\r\n        // for accounts without code, i.e. `keccak256('')`\r\n        bytes32 codehash;\r\n        bytes32 accountHash = 0xc5d2460186f7233c927e7db2dcc703c0e500b653ca82273b7bfad8045d85a470;\r\n        // solhint-disable-next-line no-inline-assembly\r\n        assembly { codehash := extcodehash(account) }\r\n        return (codehash != 0x0 && codehash != accountHash);\r\n    }\r\n\r\n    /**\r\n     * @dev Converts an `address` into `address payable`. Note that this is\r\n     * simply a type cast: the actual underlying value is not changed.\r\n     *\r\n     * _Available since v2.4.0._\r\n     */\r\n    function toPayable(address account) internal pure returns (address payable) {\r\n        return address(uint160(account));\r\n    }\r\n\r\n    /**\r\n     * @dev Replacement for Solidity's `transfer`: sends `amount` wei to\r\n     * `recipient`, forwarding all available gas and reverting on errors.\r\n     *\r\n     * https://eips.ethereum.org/EIPS/eip-1884[EIP1884] increases the gas cost\r\n     * of certain opcodes, possibly making contracts go over the 2300 gas limit\r\n     * imposed by `transfer`, making them unable to receive funds via\r\n     * `transfer`. {sendValue} removes this limitation.\r\n     *\r\n     * https://diligence.consensys.net/posts/2019/09/stop-using-soliditys-transfer-now/[Learn more].\r\n     *\r\n     * IMPORTANT: because control is transferred to `recipient`, care must be\r\n     * taken to not create reentrancy vulnerabilities. Consider using\r\n     * {ReentrancyGuard} or the\r\n     * https://solidity.readthedocs.io/en/v0.5.11/security-considerations.html#use-the-checks-effects-interactions-pattern[checks-effects-interactions pattern].\r\n     *\r\n     * _Available since v2.4.0._\r\n     */\r\n    function sendValue(address payable recipient, uint256 amount) internal {\r\n        require(address(this).balance >= amount, \"Address: insufficient balance\");\r\n\r\n        // solhint-disable-next-line avoid-call-value\r\n        (bool success, ) = recipient.call.value(amount)(\"\");\r\n        require(success, \"Address: unable to send value, recipient may have reverted\");\r\n    }\r\n}\r\n\r\ninterface IUniswapROI {\r\n    function calcUniswapROI(address token) external view returns (uint256, uint256);\r\n}\r\n\r\ncontract IUniswapAPR {\r\n    function getBlocksPerYear() external view returns (uint256);\r\n    function calcUniswapAPRFromROI(uint256 roi, uint256 createdAt) external view returns (uint256);\r\n    function calcUniswapAPR(address token, uint256 createdAt) external view returns (uint256);\r\n}\r\n\r\ninterface APRWithPoolOracle {\r\n\r\n  function getDDEXAPR(address token) external view returns (uint256);\r\n  function getDDEXAPRAdjusted(address token, uint256 _supply) external view returns (uint256);\r\n  function getLENDFAPR(address token) external view returns (uint256);\r\n  function getLENDFAPRAdjusted(address token, uint256 _supply) external view returns (uint256);\r\n  function getCompoundAPR(address token) external view returns (uint256);\r\n  function getCompoundAPRAdjusted(address token, uint256 _supply) external view returns (uint256);\r\n  function getFulcrumAPR(address token) external view returns(uint256);\r\n  function getFulcrumAPRAdjusted(address token, uint256 _supply) external view returns(uint256);\r\n  function getDyDxAPR(uint256 marketId) external view returns(uint256);\r\n  function getDyDxAPRAdjusted(uint256 marketId, uint256 _supply) external view returns(uint256);\r\n  function getAaveCore() external view returns (address);\r\n  function getAaveAPR(address token) external view returns (uint256);\r\n  function getAaveAPRAdjusted(address token, uint256 _supply) external view returns (uint256);\r\n\r\n}\r\n\r\ninterface IUniswapFactory {\r\n    function getExchange(address token) external view returns (address exchange);\r\n}\r\n\r\ninterface IYToken {\r\n  function calcPoolValueInToken() external view returns (uint256);\r\n  function decimals() external view returns (uint256);\r\n}\r\n\r\n\r\ncontract IEarnAPRWithPool is Ownable {\r\n    using SafeMath for uint;\r\n    using Address for address;\r\n\r\n    mapping(address => uint256) public pools;\r\n    mapping(address => address) public compound;\r\n    mapping(address => address) public fulcrum;\r\n    mapping(address => address) public aave;\r\n    mapping(address => address) public aaveUni;\r\n    mapping(address => uint256) public dydx;\r\n    mapping(address => address) public yTokens;\r\n    mapping(address => uint256) public yearns;\r\n\r\n    address public UNI;\r\n    address public UNIROI;\r\n    address public UNIAPR;\r\n    address public APR;\r\n\r\n    constructor() public {\r\n        UNI = address(0xc0a47dFe034B400B47bDaD5FecDa2621de6c4d95);\r\n        UNIROI = address(0xD04cA0Ae1cd8085438FDd8c22A76246F315c2687);\r\n        UNIAPR = address(0x4c70D89A4681b2151F56Dc2c3FD751aBb9CE3D95);\r\n        APR = address(0xe233b89c76C172E36Fe6985fE8B2731522Fc6177);\r\n\r\n        addPool(0x5d3a536E4D6DbD6114cc1Ead35777bAB948E3643, 9000629);\r\n        addPool(0xF5DCe57282A584D2746FaF1593d3121Fcac444dC, 7723867);\r\n        addPool(0x6B175474E89094C44Da98b954EedeAC495271d0F, 8939330);\r\n        addPool(0x0000000000085d4780B73119b644AE5ecd22b376, 7794100);\r\n        addPool(0xA0b86991c6218b36c1d19D4a2e9Eb0cE3606eB48, 6783192);\r\n        addPool(0x57Ab1ec28D129707052df4dF418D58a2D46d5f51, 8623684);\r\n        addPool(0x0D8775F648430679A709E98d2b0Cb6250d2887EF, 6660894);\r\n        addPool(0x514910771AF9Ca656af840dff83E8264EcF986CA, 6627987);\r\n        addPool(0xdd974D5C2e2928deA5F71b9825b8b646686BD200, 6627984);\r\n        addPool(0x1985365e9f78359a9B6AD760e32412f4a445E862, 6627994);\r\n        addPool(0x9f8F72aA9304c8B593d555F12eF6589cC3A579A2, 6627956);\r\n        addPool(0xE41d2489571d322189246DaFA5ebDe1F4699F498, 6627972);\r\n        addPool(0xC011a73ee8576Fb46F5E1c5751cA3B9Fe0af2a6F, 8314762);\r\n        addPool(0x2260FAC5E5542a773Aa44fBCfeDf7C193bc2C599, 7004537);\r\n\r\n        addCToken(0x6B175474E89094C44Da98b954EedeAC495271d0F, 0x5d3a536E4D6DbD6114cc1Ead35777bAB948E3643); // cDAI\r\n        addCToken(0x0D8775F648430679A709E98d2b0Cb6250d2887EF, 0x6C8c6b02E7b2BE14d4fA6022Dfd6d75921D90E4E); // cBAT\r\n        addCToken(0xEeeeeEeeeEeEeeEeEeEeeEEEeeeeEeeeeeeeEEeE, 0x4Ddc2D193948926D02f9B1fE9e1daa0718270ED5); // cETH\r\n        addCToken(0x1985365e9f78359a9B6AD760e32412f4a445E862, 0x158079Ee67Fce2f58472A96584A73C7Ab9AC95c1); // cREP\r\n        addCToken(0xA0b86991c6218b36c1d19D4a2e9Eb0cE3606eB48, 0x39AA39c021dfbaE8faC545936693aC917d5E7563); // cUSDC\r\n        addCToken(0x2260FAC5E5542a773Aa44fBCfeDf7C193bc2C599, 0xC11b1268C1A384e55C48c2391d8d480264A3A7F4); // cWBTC\r\n        addCToken(0xE41d2489571d322189246DaFA5ebDe1F4699F498, 0xB3319f5D18Bc0D84dD1b4825Dcde5d5f7266d407); // cZRX\r\n\r\n\r\n        addAToken(0x6B175474E89094C44Da98b954EedeAC495271d0F, 0x6B175474E89094C44Da98b954EedeAC495271d0F); // aDAI\r\n        addAToken(0x0000000000085d4780B73119b644AE5ecd22b376, 0x0000000000085d4780B73119b644AE5ecd22b376); // aTUSD\r\n        addAToken(0xA0b86991c6218b36c1d19D4a2e9Eb0cE3606eB48, 0xA0b86991c6218b36c1d19D4a2e9Eb0cE3606eB48); // aUSDC\r\n        addAToken(0xdAC17F958D2ee523a2206206994597C13D831ec7, 0xdAC17F958D2ee523a2206206994597C13D831ec7); // aUSDT\r\n        addAToken(0x57Ab1ec28D129707052df4dF418D58a2D46d5f51, 0x57Ab1ec28D129707052df4dF418D58a2D46d5f51); // aSUSD\r\n        addAToken(0x80fB784B7eD66730e8b1DBd9820aFD29931aab03, 0x80fB784B7eD66730e8b1DBd9820aFD29931aab03); // aLEND\r\n        addAToken(0x0D8775F648430679A709E98d2b0Cb6250d2887EF, 0x0D8775F648430679A709E98d2b0Cb6250d2887EF); // aBAT\r\n        addAToken(0xEeeeeEeeeEeEeeEeEeEeeEEEeeeeEeeeeeeeEEeE, 0xEeeeeEeeeEeEeeEeEeEeeEEEeeeeEeeeeeeeEEeE); // aETH\r\n        addAToken(0x514910771AF9Ca656af840dff83E8264EcF986CA, 0x514910771AF9Ca656af840dff83E8264EcF986CA); // aLINK\r\n        addAToken(0xdd974D5C2e2928deA5F71b9825b8b646686BD200, 0xdd974D5C2e2928deA5F71b9825b8b646686BD200); // aKNC\r\n        addAToken(0x1985365e9f78359a9B6AD760e32412f4a445E862, 0x1985365e9f78359a9B6AD760e32412f4a445E862); // aREP\r\n        addAToken(0x9f8F72aA9304c8B593d555F12eF6589cC3A579A2, 0x9f8F72aA9304c8B593d555F12eF6589cC3A579A2); // aMKR\r\n        addAToken(0x0F5D2fB29fb7d3CFeE444a200298f468908cC942, 0x0F5D2fB29fb7d3CFeE444a200298f468908cC942); // aMANA\r\n        addAToken(0xE41d2489571d322189246DaFA5ebDe1F4699F498, 0xE41d2489571d322189246DaFA5ebDe1F4699F498); // aZRX\r\n        addAToken(0xC011a73ee8576Fb46F5E1c5751cA3B9Fe0af2a6F, 0xC011a73ee8576Fb46F5E1c5751cA3B9Fe0af2a6F); // aSNX\r\n        addAToken(0x2260FAC5E5542a773Aa44fBCfeDf7C193bc2C599, 0x2260FAC5E5542a773Aa44fBCfeDf7C193bc2C599); // aWBTC\r\n\r\n        addAUniToken(0x6B175474E89094C44Da98b954EedeAC495271d0F, 0xfC1E690f61EFd961294b3e1Ce3313fBD8aa4f85d); // aDAI\r\n        addAUniToken(0x0000000000085d4780B73119b644AE5ecd22b376, 0x4DA9b813057D04BAef4e5800E36083717b4a0341); // aTUSD\r\n        addAUniToken(0xA0b86991c6218b36c1d19D4a2e9Eb0cE3606eB48, 0x9bA00D6856a4eDF4665BcA2C2309936572473B7E); // aUSDC\r\n        addAUniToken(0xdAC17F958D2ee523a2206206994597C13D831ec7, 0x71fc860F7D3A592A4a98740e39dB31d25db65ae8); // aUSDT\r\n        addAUniToken(0x57Ab1ec28D129707052df4dF418D58a2D46d5f51, 0x625aE63000f46200499120B906716420bd059240); // aSUSD\r\n        addAUniToken(0x80fB784B7eD66730e8b1DBd9820aFD29931aab03, 0x7D2D3688Df45Ce7C552E19c27e007673da9204B8); // aLEND\r\n        addAUniToken(0x0D8775F648430679A709E98d2b0Cb6250d2887EF, 0xE1BA0FB44CCb0D11b80F92f4f8Ed94CA3fF51D00); // aBAT\r\n        addAUniToken(0xEeeeeEeeeEeEeeEeEeEeeEEEeeeeEeeeeeeeEEeE, 0x3a3A65aAb0dd2A17E3F1947bA16138cd37d08c04); // aETH\r\n        addAUniToken(0x514910771AF9Ca656af840dff83E8264EcF986CA, 0xA64BD6C70Cb9051F6A9ba1F163Fdc07E0DfB5F84); // aLINK\r\n        addAUniToken(0xdd974D5C2e2928deA5F71b9825b8b646686BD200, 0x9D91BE44C06d373a8a226E1f3b146956083803eB); // aKNC\r\n        addAUniToken(0x1985365e9f78359a9B6AD760e32412f4a445E862, 0x71010A9D003445aC60C4e6A7017c1E89A477B438); // aREP\r\n        addAUniToken(0x9f8F72aA9304c8B593d555F12eF6589cC3A579A2, 0x7deB5e830be29F91E298ba5FF1356BB7f8146998); // aMKR\r\n        addAUniToken(0x0F5D2fB29fb7d3CFeE444a200298f468908cC942, 0x6FCE4A401B6B80ACe52baAefE4421Bd188e76F6f); // aMANA\r\n        addAUniToken(0xE41d2489571d322189246DaFA5ebDe1F4699F498, 0x6Fb0855c404E09c47C3fBCA25f08d4E41f9F062f); // aZRX\r\n        addAUniToken(0xC011a73ee8576Fb46F5E1c5751cA3B9Fe0af2a6F, 0x328C4c80BC7aCa0834Db37e6600A6c49E12Da4DE); // aSNX\r\n        addAUniToken(0x2260FAC5E5542a773Aa44fBCfeDf7C193bc2C599, 0xFC4B8ED459e00e5400be803A9BB3954234FD50e3); // aWBTC\r\n\r\n        addIToken(0xE41d2489571d322189246DaFA5ebDe1F4699F498, 0xA7Eb2bc82df18013ecC2A6C533fc29446442EDEe); // iZRX\r\n        addIToken(0x1985365e9f78359a9B6AD760e32412f4a445E862, 0xBd56E9477Fc6997609Cf45F84795eFbDAC642Ff1); // iREP\r\n        addIToken(0xdd974D5C2e2928deA5F71b9825b8b646686BD200, 0x1cC9567EA2eB740824a45F8026cCF8e46973234D); // iKNC\r\n        addIToken(0x2260FAC5E5542a773Aa44fBCfeDf7C193bc2C599, 0xBA9262578EFef8b3aFf7F60Cd629d6CC8859C8b5); // iWBTC\r\n        addIToken(0xA0b86991c6218b36c1d19D4a2e9Eb0cE3606eB48, 0xF013406A0B1d544238083DF0B93ad0d2cBE0f65f); // iUSDC\r\n        addIToken(0xEeeeeEeeeEeEeeEeEeEeeEEEeeeeEeeeeeeeEEeE, 0x77f973FCaF871459aa58cd81881Ce453759281bC); // iETH\r\n        addIToken(0x6B175474E89094C44Da98b954EedeAC495271d0F, 0x493C57C4763932315A328269E1ADaD09653B9081); // iDAI\r\n        addIToken(0x514910771AF9Ca656af840dff83E8264EcF986CA, 0x1D496da96caf6b518b133736beca85D5C4F9cBc5); // iLINK\r\n        addIToken(0x57Ab1ec28D129707052df4dF418D58a2D46d5f51, 0x49f4592E641820e928F9919Ef4aBd92a719B4b49); // iSUSD\r\n\r\n        addDToken(0xEeeeeEeeeEeEeeEeEeEeeEEEeeeeEeeeeeeeEEeE, 0); // dETH\r\n        addDToken(0xA0b86991c6218b36c1d19D4a2e9Eb0cE3606eB48, 2); // dUSDC\r\n        addDToken(0x6B175474E89094C44Da98b954EedeAC495271d0F, 3); // dDAI\r\n\r\n        addYToken(0x6B175474E89094C44Da98b954EedeAC495271d0F, 0x9D25057e62939D3408406975aD75Ffe834DA4cDd); // yDAI\r\n        addYToken(0xA0b86991c6218b36c1d19D4a2e9Eb0cE3606eB48, 0xa2609B2b43AC0F5EbE27deB944d2a399C201E3dA); // yUSDC\r\n        addYToken(0xdAC17F958D2ee523a2206206994597C13D831ec7, 0xa1787206d5b1bE0f432C4c4f96Dc4D1257A1Dd14); // yUSDT\r\n        addYToken(0x57Ab1ec28D129707052df4dF418D58a2D46d5f51, 0x36324b8168f960A12a8fD01406C9C78143d41380); // ySUSD\r\n        addYToken(0x2260FAC5E5542a773Aa44fBCfeDf7C193bc2C599, 0x04EF8121aD039ff41d10029c91EA1694432514e9); // yWBTC\r\n\r\n        /*addYearn(0x9D25057e62939D3408406975aD75Ffe834DA4cDd,9381203); //yDAI\r\n        addYearn(0xa2609B2b43AC0F5EbE27deB944d2a399C201E3dA,9381851); //yUSDC\r\n        addYearn(0x36324b8168f960A12a8fD01406C9C78143d41380,9387937); //ySUSD\r\n        addYearn(0xa1787206d5b1bE0f432C4c4f96Dc4D1257A1Dd14,9384129); //yUSDT\r\n        addYearn(0x04EF8121aD039ff41d10029c91EA1694432514e9,9396412); //yWBTC*/\r\n\r\n    }\r\n\r\n    function getAPROptionsInc(address _token) public view returns (\r\n      uint256 _uniswap,\r\n      uint256 _compound,\r\n      uint256 _unicompound,\r\n      uint256 _fulcrum,\r\n      uint256 _unifulcrum,\r\n      uint256 _aave,\r\n      uint256 _uniaave,\r\n      uint256 _dydx,\r\n      uint256 _ddex,\r\n      uint256 _lendf\r\n    ) {\r\n      address yToken = yTokens[_token];\r\n      uint256 _supply = 0;\r\n      if (yToken != address(0)) {\r\n        _supply = IYToken(yToken).calcPoolValueInToken();\r\n      }\r\n      return getAPROptionsAdjusted(_token, _supply);\r\n    }\r\n\r\n    function getAPROptions(address _token) public view returns (\r\n      uint256 _uniswap,\r\n      uint256 _compound,\r\n      uint256 _unicompound,\r\n      uint256 _fulcrum,\r\n      uint256 _unifulcrum,\r\n      uint256 _aave,\r\n      uint256 _uniaave,\r\n      uint256 _dydx,\r\n      uint256 _ddex,\r\n      uint256 _lendf\r\n    ) {\r\n      return getAPROptionsAdjusted(_token, 0);\r\n    }\r\n\r\n    function getAPROptionsAdjusted(address _token, uint256 _supply) public view returns (\r\n      uint256 _uniswap,\r\n      uint256 _compound,\r\n      uint256 _unicompound,\r\n      uint256 _fulcrum,\r\n      uint256 _unifulcrum,\r\n      uint256 _aave,\r\n      uint256 _uniaave,\r\n      uint256 _dydx,\r\n      uint256 _ddex,\r\n      uint256 _lendf\r\n    ) {\r\n      uint256 created = pools[_token];\r\n\r\n      if (created > 0) {\r\n        _uniswap = IUniswapAPR(UNIAPR).calcUniswapAPR(_token, created);\r\n      }\r\n      address addr = compound[_token];\r\n      if (addr != address(0)) {\r\n        _compound = APRWithPoolOracle(APR).getCompoundAPR(addr);\r\n        created = pools[addr];\r\n        if (created > 0) {\r\n          _unicompound = IUniswapAPR(UNIAPR).calcUniswapAPR(addr, created);\r\n        }\r\n      }\r\n      addr = fulcrum[_token];\r\n      if (addr != address(0)) {\r\n        _fulcrum = APRWithPoolOracle(APR).getFulcrumAPRAdjusted(addr, _supply);\r\n        created = pools[addr];\r\n        if (created > 0) {\r\n          _unifulcrum = IUniswapAPR(UNIAPR).calcUniswapAPR(addr, created);\r\n        }\r\n      }\r\n      addr = aave[_token];\r\n      if (addr != address(0)) {\r\n        _aave = APRWithPoolOracle(APR).getAaveAPRAdjusted(addr, _supply);\r\n        addr = aaveUni[_token];\r\n        created = pools[addr];\r\n        if (created > 0) {\r\n          _uniaave = IUniswapAPR(UNIAPR).calcUniswapAPR(addr, created);\r\n        }\r\n      }\r\n\r\n      _dydx = dydx[_token];\r\n      if (_dydx > 0 || _token == address(0xEeeeeEeeeEeEeeEeEeEeeEEEeeeeEeeeeeeeEEeE)) {\r\n        _dydx = APRWithPoolOracle(APR).getDyDxAPRAdjusted(_dydx, _supply);\r\n      }\r\n\r\n      _ddex = APRWithPoolOracle(APR).getDDEXAPRAdjusted(_token, _supply);\r\n      _lendf = APRWithPoolOracle(APR).getLENDFAPRAdjusted(_token, _supply);\r\n\r\n      return (\r\n        _uniswap,\r\n        _compound,\r\n        _unicompound,\r\n        _fulcrum,\r\n        _unifulcrum,\r\n        _aave,\r\n        _uniaave,\r\n        _dydx,\r\n        _ddex,\r\n        _lendf\r\n      );\r\n    }\r\n\r\n    function viewPool(address _token) public view returns (\r\n      address token,\r\n      address unipool,\r\n      uint256 created,\r\n      string memory name,\r\n      string memory symbol\r\n    ) {\r\n      token = _token;\r\n      unipool = IUniswapFactory(UNI).getExchange(_token);\r\n      created = pools[_token];\r\n      name = IERC20(_token).name();\r\n      symbol = IERC20(_token).symbol();\r\n      return (token, unipool, created, name, symbol);\r\n    }\r\n\r\n    function addPool(\r\n      address token,\r\n      uint256 created\r\n    ) public onlyOwner {\r\n        pools[token] = created;\r\n    }\r\n\r\n    function addCToken(\r\n      address token,\r\n      address cToken\r\n    ) public onlyOwner {\r\n        compound[token] = cToken;\r\n    }\r\n\r\n    function addIToken(\r\n      address token,\r\n      address iToken\r\n    ) public onlyOwner {\r\n        fulcrum[token] = iToken;\r\n    }\r\n\r\n    function addAToken(\r\n      address token,\r\n      address aToken\r\n    ) public onlyOwner {\r\n        aave[token] = aToken;\r\n    }\r\n\r\n    function addAUniToken(\r\n      address token,\r\n      address aToken\r\n    ) public onlyOwner {\r\n        aaveUni[token] = aToken;\r\n    }\r\n\r\n    function addYToken(\r\n      address token,\r\n      address yToken\r\n    ) public onlyOwner {\r\n        yTokens[token] = yToken;\r\n    }\r\n\r\n    function addDToken(\r\n      address token,\r\n      uint256 dToken\r\n    ) public onlyOwner {\r\n        dydx[token] = dToken;\r\n    }\r\n\r\n    function set_new_UNIROI(address _new_UNIROI) public onlyOwner {\r\n        UNIROI = _new_UNIROI;\r\n    }\r\n    function set_new_UNI(address _new_UNI) public onlyOwner {\r\n        UNI = _new_UNI;\r\n    }\r\n    function set_new_UNIAPR(address _new_UNIAPR) public onlyOwner {\r\n        UNIAPR = _new_UNIAPR;\r\n    }\r\n    function set_new_APR(address _new_APR) public onlyOwner {\r\n        APR = _new_APR;\r\n    }\r\n\r\n    // incase of half-way error\r\n    function inCaseTokenGetsStuck(IERC20 _TokenAddress) onlyOwner public {\r\n        uint qty = _TokenAddress.balanceOf(address(this));\r\n        _TokenAddress.transfer(msg.sender, qty);\r\n    }\r\n    // incase of half-way error\r\n    function inCaseETHGetsStuck() onlyOwner public{\r\n        (bool result, ) = msg.sender.call.value(address(this).balance)(\"\");\r\n        require(result, \"transfer of ETH failed\");\r\n    }\r\n}\r\n",
  "sourcePath": "D:/ftm/uniswap-roi/contracts/IEarnAPRWithPool.sol",
  "compiler": {
    "name": "solc",
    "version": "0.5.12+commit.7709ece9.Emscripten.clang"
  },
  "schemaVersion": "3.0.19",
  "updatedAt": "2020-02-05T00:42:58.453Z",
  "devdoc": {
    "methods": {
      "isOwner()": {
        "details": "Returns true if the caller is the current owner."
      },
      "owner()": {
        "details": "Returns the address of the current owner."
      },
      "renounceOwnership()": {
        "details": "Leaves the contract without owner. It will not be possible to call `onlyOwner` functions anymore. Can only be called by the current owner.      * NOTE: Renouncing ownership will leave the contract without an owner, thereby removing any functionality that is only available to the owner."
      },
      "transferOwnership(address)": {
        "details": "Transfers ownership of the contract to a new account (`newOwner`). Can only be called by the current owner."
      }
    }
  },
  "userdoc": {
    "methods": {}
  }
}