{
  "contractName": "IEarnManager",
  "abi": [
    {
      "inputs": [],
      "payable": false,
      "stateMutability": "nonpayable",
      "type": "constructor"
    },
    {
      "anonymous": false,
      "inputs": [
        {
          "indexed": true,
          "internalType": "address",
          "name": "previousOwner",
          "type": "address"
        },
        {
          "indexed": true,
          "internalType": "address",
          "name": "newOwner",
          "type": "address"
        }
      ],
      "name": "OwnershipTransferred",
      "type": "event"
    },
    {
      "constant": true,
      "inputs": [],
      "name": "APR",
      "outputs": [
        {
          "internalType": "address",
          "name": "",
          "type": "address"
        }
      ],
      "payable": false,
      "stateMutability": "view",
      "type": "function"
    },
    {
      "constant": true,
      "inputs": [],
      "name": "isOwner",
      "outputs": [
        {
          "internalType": "bool",
          "name": "",
          "type": "bool"
        }
      ],
      "payable": false,
      "stateMutability": "view",
      "type": "function"
    },
    {
      "constant": true,
      "inputs": [],
      "name": "owner",
      "outputs": [
        {
          "internalType": "address",
          "name": "",
          "type": "address"
        }
      ],
      "payable": false,
      "stateMutability": "view",
      "type": "function"
    },
    {
      "constant": false,
      "inputs": [],
      "name": "renounceOwnership",
      "outputs": [],
      "payable": false,
      "stateMutability": "nonpayable",
      "type": "function"
    },
    {
      "constant": false,
      "inputs": [
        {
          "internalType": "address",
          "name": "newOwner",
          "type": "address"
        }
      ],
      "name": "transferOwnership",
      "outputs": [],
      "payable": false,
      "stateMutability": "nonpayable",
      "type": "function"
    },
    {
      "constant": true,
      "inputs": [],
      "name": "recommendSNX",
      "outputs": [
        {
          "internalType": "string",
          "name": "choice",
          "type": "string"
        },
        {
          "internalType": "uint256",
          "name": "capr",
          "type": "uint256"
        },
        {
          "internalType": "uint256",
          "name": "iapr",
          "type": "uint256"
        },
        {
          "internalType": "uint256",
          "name": "aapr",
          "type": "uint256"
        },
        {
          "internalType": "uint256",
          "name": "dapr",
          "type": "uint256"
        }
      ],
      "payable": false,
      "stateMutability": "view",
      "type": "function"
    },
    {
      "constant": true,
      "inputs": [],
      "name": "recommendUSDT",
      "outputs": [
        {
          "internalType": "string",
          "name": "choice",
          "type": "string"
        },
        {
          "internalType": "uint256",
          "name": "capr",
          "type": "uint256"
        },
        {
          "internalType": "uint256",
          "name": "iapr",
          "type": "uint256"
        },
        {
          "internalType": "uint256",
          "name": "aapr",
          "type": "uint256"
        },
        {
          "internalType": "uint256",
          "name": "dapr",
          "type": "uint256"
        }
      ],
      "payable": false,
      "stateMutability": "view",
      "type": "function"
    },
    {
      "constant": true,
      "inputs": [],
      "name": "recommendBAT",
      "outputs": [
        {
          "internalType": "string",
          "name": "choice",
          "type": "string"
        },
        {
          "internalType": "uint256",
          "name": "capr",
          "type": "uint256"
        },
        {
          "internalType": "uint256",
          "name": "iapr",
          "type": "uint256"
        },
        {
          "internalType": "uint256",
          "name": "aapr",
          "type": "uint256"
        },
        {
          "internalType": "uint256",
          "name": "dapr",
          "type": "uint256"
        }
      ],
      "payable": false,
      "stateMutability": "view",
      "type": "function"
    },
    {
      "constant": true,
      "inputs": [],
      "name": "recommendMKR",
      "outputs": [
        {
          "internalType": "string",
          "name": "choice",
          "type": "string"
        },
        {
          "internalType": "uint256",
          "name": "capr",
          "type": "uint256"
        },
        {
          "internalType": "uint256",
          "name": "iapr",
          "type": "uint256"
        },
        {
          "internalType": "uint256",
          "name": "aapr",
          "type": "uint256"
        },
        {
          "internalType": "uint256",
          "name": "dapr",
          "type": "uint256"
        }
      ],
      "payable": false,
      "stateMutability": "view",
      "type": "function"
    },
    {
      "constant": true,
      "inputs": [],
      "name": "recommendZRX",
      "outputs": [
        {
          "internalType": "string",
          "name": "choice",
          "type": "string"
        },
        {
          "internalType": "uint256",
          "name": "capr",
          "type": "uint256"
        },
        {
          "internalType": "uint256",
          "name": "iapr",
          "type": "uint256"
        },
        {
          "internalType": "uint256",
          "name": "aapr",
          "type": "uint256"
        },
        {
          "internalType": "uint256",
          "name": "dapr",
          "type": "uint256"
        }
      ],
      "payable": false,
      "stateMutability": "view",
      "type": "function"
    },
    {
      "constant": true,
      "inputs": [],
      "name": "recommendREP",
      "outputs": [
        {
          "internalType": "string",
          "name": "choice",
          "type": "string"
        },
        {
          "internalType": "uint256",
          "name": "capr",
          "type": "uint256"
        },
        {
          "internalType": "uint256",
          "name": "iapr",
          "type": "uint256"
        },
        {
          "internalType": "uint256",
          "name": "aapr",
          "type": "uint256"
        },
        {
          "internalType": "uint256",
          "name": "dapr",
          "type": "uint256"
        }
      ],
      "payable": false,
      "stateMutability": "view",
      "type": "function"
    },
    {
      "constant": true,
      "inputs": [],
      "name": "recommendKNC",
      "outputs": [
        {
          "internalType": "string",
          "name": "choice",
          "type": "string"
        },
        {
          "internalType": "uint256",
          "name": "capr",
          "type": "uint256"
        },
        {
          "internalType": "uint256",
          "name": "iapr",
          "type": "uint256"
        },
        {
          "internalType": "uint256",
          "name": "aapr",
          "type": "uint256"
        },
        {
          "internalType": "uint256",
          "name": "dapr",
          "type": "uint256"
        }
      ],
      "payable": false,
      "stateMutability": "view",
      "type": "function"
    },
    {
      "constant": true,
      "inputs": [],
      "name": "recommendWBTC",
      "outputs": [
        {
          "internalType": "string",
          "name": "choice",
          "type": "string"
        },
        {
          "internalType": "uint256",
          "name": "capr",
          "type": "uint256"
        },
        {
          "internalType": "uint256",
          "name": "iapr",
          "type": "uint256"
        },
        {
          "internalType": "uint256",
          "name": "aapr",
          "type": "uint256"
        },
        {
          "internalType": "uint256",
          "name": "dapr",
          "type": "uint256"
        }
      ],
      "payable": false,
      "stateMutability": "view",
      "type": "function"
    },
    {
      "constant": true,
      "inputs": [],
      "name": "recommendLINK",
      "outputs": [
        {
          "internalType": "string",
          "name": "choice",
          "type": "string"
        },
        {
          "internalType": "uint256",
          "name": "capr",
          "type": "uint256"
        },
        {
          "internalType": "uint256",
          "name": "iapr",
          "type": "uint256"
        },
        {
          "internalType": "uint256",
          "name": "aapr",
          "type": "uint256"
        },
        {
          "internalType": "uint256",
          "name": "dapr",
          "type": "uint256"
        }
      ],
      "payable": false,
      "stateMutability": "view",
      "type": "function"
    },
    {
      "constant": true,
      "inputs": [],
      "name": "recommendSUSD",
      "outputs": [
        {
          "internalType": "string",
          "name": "choice",
          "type": "string"
        },
        {
          "internalType": "uint256",
          "name": "capr",
          "type": "uint256"
        },
        {
          "internalType": "uint256",
          "name": "iapr",
          "type": "uint256"
        },
        {
          "internalType": "uint256",
          "name": "aapr",
          "type": "uint256"
        },
        {
          "internalType": "uint256",
          "name": "dapr",
          "type": "uint256"
        }
      ],
      "payable": false,
      "stateMutability": "view",
      "type": "function"
    },
    {
      "constant": true,
      "inputs": [],
      "name": "recommendDAI",
      "outputs": [
        {
          "internalType": "string",
          "name": "choice",
          "type": "string"
        },
        {
          "internalType": "uint256",
          "name": "capr",
          "type": "uint256"
        },
        {
          "internalType": "uint256",
          "name": "iapr",
          "type": "uint256"
        },
        {
          "internalType": "uint256",
          "name": "aapr",
          "type": "uint256"
        },
        {
          "internalType": "uint256",
          "name": "dapr",
          "type": "uint256"
        }
      ],
      "payable": false,
      "stateMutability": "view",
      "type": "function"
    },
    {
      "constant": true,
      "inputs": [],
      "name": "recommendETH",
      "outputs": [
        {
          "internalType": "string",
          "name": "choice",
          "type": "string"
        },
        {
          "internalType": "uint256",
          "name": "capr",
          "type": "uint256"
        },
        {
          "internalType": "uint256",
          "name": "iapr",
          "type": "uint256"
        },
        {
          "internalType": "uint256",
          "name": "aapr",
          "type": "uint256"
        },
        {
          "internalType": "uint256",
          "name": "dapr",
          "type": "uint256"
        }
      ],
      "payable": false,
      "stateMutability": "view",
      "type": "function"
    },
    {
      "constant": true,
      "inputs": [],
      "name": "recommendUSDC",
      "outputs": [
        {
          "internalType": "string",
          "name": "choice",
          "type": "string"
        },
        {
          "internalType": "uint256",
          "name": "capr",
          "type": "uint256"
        },
        {
          "internalType": "uint256",
          "name": "iapr",
          "type": "uint256"
        },
        {
          "internalType": "uint256",
          "name": "aapr",
          "type": "uint256"
        },
        {
          "internalType": "uint256",
          "name": "dapr",
          "type": "uint256"
        }
      ],
      "payable": false,
      "stateMutability": "view",
      "type": "function"
    },
    {
      "constant": true,
      "inputs": [
        {
          "internalType": "address",
          "name": "_token",
          "type": "address"
        }
      ],
      "name": "recommend",
      "outputs": [
        {
          "internalType": "string",
          "name": "choice",
          "type": "string"
        },
        {
          "internalType": "uint256",
          "name": "capr",
          "type": "uint256"
        },
        {
          "internalType": "uint256",
          "name": "iapr",
          "type": "uint256"
        },
        {
          "internalType": "uint256",
          "name": "aapr",
          "type": "uint256"
        },
        {
          "internalType": "uint256",
          "name": "dapr",
          "type": "uint256"
        }
      ],
      "payable": false,
      "stateMutability": "view",
      "type": "function"
    },
    {
      "constant": false,
      "inputs": [
        {
          "internalType": "address",
          "name": "_new_APR",
          "type": "address"
        }
      ],
      "name": "set_new_APR",
      "outputs": [],
      "payable": false,
      "stateMutability": "nonpayable",
      "type": "function"
    },
    {
      "constant": false,
      "inputs": [
        {
          "internalType": "contract IERC20",
          "name": "_TokenAddress",
          "type": "address"
        }
      ],
      "name": "inCaseTokenGetsStuck",
      "outputs": [],
      "payable": false,
      "stateMutability": "nonpayable",
      "type": "function"
    },
    {
      "constant": false,
      "inputs": [],
      "name": "inCaseETHGetsStuck",
      "outputs": [],
      "payable": false,
      "stateMutability": "nonpayable",
      "type": "function"
    }
  ],
  "bytecode": "0x608060405234801561001057600080fd5b5061001f61013460201b60201c565b6000806101000a81548173ffffffffffffffffffffffffffffffffffffffff021916908373ffffffffffffffffffffffffffffffffffffffff1602179055506000809054906101000a900473ffffffffffffffffffffffffffffffffffffffff1673ffffffffffffffffffffffffffffffffffffffff16600073ffffffffffffffffffffffffffffffffffffffff167f8be0079c531659141344cd1fd0a4f28419497f9722a3daafe3b4186f6b6457e060405160405180910390a3739cad8ab10daa9af1a9d2b878541f41b697268eec600160006101000a81548173ffffffffffffffffffffffffffffffffffffffff021916908373ffffffffffffffffffffffffffffffffffffffff16021790555061013c565b600033905090565b61199d8061014b6000396000f3fe608060405234801561001057600080fd5b50600436106101425760003560e01c80639947cc93116100b8578063db8995931161007c578063db899593146108ff578063e0f0888c1461099e578063e337cdbe14610a3d578063e6110e2514610adc578063f2fde38b14610b7b578063f60a15ed14610bbf57610142565b80639947cc93146105ff578063a09c70c71461069e578063b54878011461073d578063bd30558e146107dc578063d88be3c01461082657610142565b8063715018a61161010a578063715018a6146103ac57806372c46276146103b6578063892eac13146104555780638d655bc7146104f45780638da5cb5b146105935780638f32d59b146105dd57610142565b806304eb246d14610147578063278884a3146101e65780632e8d6e181461028557806346357473146102c95780635637626b1461030d575b600080fd5b61014f610bc9565b6040518080602001868152602001858152602001848152602001838152602001828103825287818151815260200191508051906020019080838360005b838110156101a757808201518184015260208101905061018c565b50505050905090810190601f1680156101d45780820380516001836020036101000a031916815260200191505b50965050505050505060405180910390f35b6101ee610bff565b6040518080602001868152602001858152602001848152602001838152602001828103825287818151815260200191508051906020019080838360005b8381101561024657808201518184015260208101905061022b565b50505050905090810190601f1680156102735780820380516001836020036101000a031916815260200191505b50965050505050505060405180910390f35b6102c76004803603602081101561029b57600080fd5b81019080803573ffffffffffffffffffffffffffffffffffffffff169060200190929190505050610c35565b005b61030b600480360360208110156102df57600080fd5b81019080803573ffffffffffffffffffffffffffffffffffffffff169060200190929190505050610e32565b005b610315610ef0565b6040518080602001868152602001858152602001848152602001838152602001828103825287818151815260200191508051906020019080838360005b8381101561036d578082015181840152602081019050610352565b50505050905090810190601f16801561039a5780820380516001836020036101000a031916815260200191505b50965050505050505060405180910390f35b6103b4610f26565b005b6103be61105f565b6040518080602001868152602001858152602001848152602001838152602001828103825287818151815260200191508051906020019080838360005b838110156104165780820151818401526020810190506103fb565b50505050905090810190601f1680156104435780820380516001836020036101000a031916815260200191505b50965050505050505060405180910390f35b61045d611095565b6040518080602001868152602001858152602001848152602001838152602001828103825287818151815260200191508051906020019080838360005b838110156104b557808201518184015260208101905061049a565b50505050905090810190601f1680156104e25780820380516001836020036101000a031916815260200191505b50965050505050505060405180910390f35b6104fc6110cb565b6040518080602001868152602001858152602001848152602001838152602001828103825287818151815260200191508051906020019080838360005b83811015610554578082015181840152602081019050610539565b50505050905090810190601f1680156105815780820380516001836020036101000a031916815260200191505b50965050505050505060405180910390f35b61059b611101565b604051808273ffffffffffffffffffffffffffffffffffffffff1673ffffffffffffffffffffffffffffffffffffffff16815260200191505060405180910390f35b6105e561112a565b604051808215151515815260200191505060405180910390f35b610607611188565b6040518080602001868152602001858152602001848152602001838152602001828103825287818151815260200191508051906020019080838360005b8381101561065f578082015181840152602081019050610644565b50505050905090810190601f16801561068c5780820380516001836020036101000a031916815260200191505b50965050505050505060405180910390f35b6106a66111be565b6040518080602001868152602001858152602001848152602001838152602001828103825287818151815260200191508051906020019080838360005b838110156106fe5780820151818401526020810190506106e3565b50505050905090810190601f16801561072b5780820380516001836020036101000a031916815260200191505b50965050505050505060405180910390f35b6107456111f4565b6040518080602001868152602001858152602001848152602001838152602001828103825287818151815260200191508051906020019080838360005b8381101561079d578082015181840152602081019050610782565b50505050905090810190601f1680156107ca5780820380516001836020036101000a031916815260200191505b50965050505050505060405180910390f35b6107e461122a565b604051808273ffffffffffffffffffffffffffffffffffffffff1673ffffffffffffffffffffffffffffffffffffffff16815260200191505060405180910390f35b6108686004803603602081101561083c57600080fd5b81019080803573ffffffffffffffffffffffffffffffffffffffff169060200190929190505050611250565b6040518080602001868152602001858152602001848152602001838152602001828103825287818151815260200191508051906020019080838360005b838110156108c05780820151818401526020810190506108a5565b50505050905090810190601f1680156108ed5780820380516001836020036101000a031916815260200191505b50965050505050505060405180910390f35b610907611528565b6040518080602001868152602001858152602001848152602001838152602001828103825287818151815260200191508051906020019080838360005b8381101561095f578082015181840152602081019050610944565b50505050905090810190601f16801561098c5780820380516001836020036101000a031916815260200191505b50965050505050505060405180910390f35b6109a661155e565b6040518080602001868152602001858152602001848152602001838152602001828103825287818151815260200191508051906020019080838360005b838110156109fe5780820151818401526020810190506109e3565b50505050905090810190601f168015610a2b5780820380516001836020036101000a031916815260200191505b50965050505050505060405180910390f35b610a45611594565b6040518080602001868152602001858152602001848152602001838152602001828103825287818151815260200191508051906020019080838360005b83811015610a9d578082015181840152602081019050610a82565b50505050905090810190601f168015610aca5780820380516001836020036101000a031916815260200191505b50965050505050505060405180910390f35b610ae46115ca565b6040518080602001868152602001858152602001848152602001838152602001828103825287818151815260200191508051906020019080838360005b83811015610b3c578082015181840152602081019050610b21565b50505050905090810190601f168015610b695780820380516001836020036101000a031916815260200191505b50965050505050505060405180910390f35b610bbd60048036036020811015610b9157600080fd5b81019080803573ffffffffffffffffffffffffffffffffffffffff169060200190929190505050611600565b005b610bc7611686565b005b6060600080600080610bee73a0b86991c6218b36c1d19d4a2e9eb0ce3606eb48611250565b945094509450945094509091929394565b6060600080600080610c2473dd974d5c2e2928dea5f71b9825b8b646686bd200611250565b945094509450945094509091929394565b610c3d61112a565b610caf576040517f08c379a00000000000000000000000000000000000000000000000000000000081526004018080602001828103825260208152602001807f4f776e61626c653a2063616c6c6572206973206e6f7420746865206f776e657281525060200191505060405180910390fd5b60008173ffffffffffffffffffffffffffffffffffffffff166370a08231306040518263ffffffff1660e01b8152600401808273ffffffffffffffffffffffffffffffffffffffff1673ffffffffffffffffffffffffffffffffffffffff16815260200191505060206040518083038186803b158015610d2e57600080fd5b505afa158015610d42573d6000803e3d6000fd5b505050506040513d6020811015610d5857600080fd5b810190808051906020019092919050505090508173ffffffffffffffffffffffffffffffffffffffff1663a9059cbb33836040518363ffffffff1660e01b8152600401808373ffffffffffffffffffffffffffffffffffffffff1673ffffffffffffffffffffffffffffffffffffffff16815260200182815260200192505050602060405180830381600087803b158015610df257600080fd5b505af1158015610e06573d6000803e3d6000fd5b505050506040513d6020811015610e1c57600080fd5b8101908080519060200190929190505050505050565b610e3a61112a565b610eac576040517f08c379a00000000000000000000000000000000000000000000000000000000081526004018080602001828103825260208152602001807f4f776e61626c653a2063616c6c6572206973206e6f7420746865206f776e657281525060200191505060405180910390fd5b80600160006101000a81548173ffffffffffffffffffffffffffffffffffffffff021916908373ffffffffffffffffffffffffffffffffffffffff16021790555050565b6060600080600080610f1573514910771af9ca656af840dff83e8264ecf986ca611250565b945094509450945094509091929394565b610f2e61112a565b610fa0576040517f08c379a00000000000000000000000000000000000000000000000000000000081526004018080602001828103825260208152602001807f4f776e61626c653a2063616c6c6572206973206e6f7420746865206f776e657281525060200191505060405180910390fd5b600073ffffffffffffffffffffffffffffffffffffffff166000809054906101000a900473ffffffffffffffffffffffffffffffffffffffff1673ffffffffffffffffffffffffffffffffffffffff167f8be0079c531659141344cd1fd0a4f28419497f9722a3daafe3b4186f6b6457e060405160405180910390a360008060006101000a81548173ffffffffffffffffffffffffffffffffffffffff021916908373ffffffffffffffffffffffffffffffffffffffff160217905550565b6060600080600080611084730d8775f648430679a709e98d2b0cb6250d2887ef611250565b945094509450945094509091929394565b60606000806000806110ba73eeeeeeeeeeeeeeeeeeeeeeeeeeeeeeeeeeeeeeee611250565b945094509450945094509091929394565b60606000806000806110f073e41d2489571d322189246dafa5ebde1f4699f498611250565b945094509450945094509091929394565b60008060009054906101000a900473ffffffffffffffffffffffffffffffffffffffff16905090565b60008060009054906101000a900473ffffffffffffffffffffffffffffffffffffffff1673ffffffffffffffffffffffffffffffffffffffff1661116c6117f6565b73ffffffffffffffffffffffffffffffffffffffff1614905090565b60606000806000806111ad73c011a73ee8576fb46f5e1c5751ca3b9fe0af2a6f611250565b945094509450945094509091929394565b60606000806000806111e3731985365e9f78359a9b6ad760e32412f4a445e862611250565b945094509450945094509091929394565b6060600080600080611219736b175474e89094c44da98b954eedeac495271d0f611250565b945094509450945094509091929394565b600160009054906101000a900473ffffffffffffffffffffffffffffffffffffffff1681565b6060600080600080600160009054906101000a900473ffffffffffffffffffffffffffffffffffffffff1673ffffffffffffffffffffffffffffffffffffffff1663acbeec7e876040518263ffffffff1660e01b8152600401808273ffffffffffffffffffffffffffffffffffffffff1673ffffffffffffffffffffffffffffffffffffffff1681526020019150506101006040518083038186803b1580156112f857600080fd5b505afa15801561130c573d6000803e3d6000fd5b505050506040513d61010081101561132357600080fd5b8101908080519060200190929190805190602001909291908051906020019092919080519060200190929190805190602001909291908051906020019092919080519060200190929190805190602001909291905050509091929394959650909192939450909192509050809450819550829650839750505050506000809050808511156113af578490505b808411156113bb578390505b808311156113c7578290505b808211156113d3578190505b6040518060400160405280600481526020017f4e6f6e650000000000000000000000000000000000000000000000000000000081525095508181141561144c576040518060400160405280600481526020017f645964580000000000000000000000000000000000000000000000000000000081525095505b8281141561148d576040518060400160405280600481526020017f416176650000000000000000000000000000000000000000000000000000000081525095505b838114156114ce576040518060400160405280600781526020017f46756c6372756d0000000000000000000000000000000000000000000000000081525095505b8481141561150f576040518060400160405280600881526020017f436f6d706f756e6400000000000000000000000000000000000000000000000081525095505b8585858585955095509550955095505091939590929450565b606060008060008061154d73dac17f958d2ee523a2206206994597c13d831ec7611250565b945094509450945094509091929394565b6060600080600080611583739f8f72aa9304c8b593d555f12ef6589cc3a579a2611250565b945094509450945094509091929394565b60606000806000806115b97357ab1ec28d129707052df4df418d58a2d46d5f51611250565b945094509450945094509091929394565b60606000806000806115ef732260fac5e5542a773aa44fbcfedf7c193bc2c599611250565b945094509450945094509091929394565b61160861112a565b61167a576040517f08c379a00000000000000000000000000000000000000000000000000000000081526004018080602001828103825260208152602001807f4f776e61626c653a2063616c6c6572206973206e6f7420746865206f776e657281525060200191505060405180910390fd5b611683816117fe565b50565b61168e61112a565b611700576040517f08c379a00000000000000000000000000000000000000000000000000000000081526004018080602001828103825260208152602001807f4f776e61626c653a2063616c6c6572206973206e6f7420746865206f776e657281525060200191505060405180910390fd5b60003373ffffffffffffffffffffffffffffffffffffffff163073ffffffffffffffffffffffffffffffffffffffff163160405180600001905060006040518083038185875af1925050503d8060008114611777576040519150601f19603f3d011682016040523d82523d6000602084013e61177c565b606091505b50509050806117f3576040517f08c379a00000000000000000000000000000000000000000000000000000000081526004018080602001828103825260168152602001807f7472616e73666572206f6620455448206661696c65640000000000000000000081525060200191505060405180910390fd5b50565b600033905090565b600073ffffffffffffffffffffffffffffffffffffffff168173ffffffffffffffffffffffffffffffffffffffff161415611884576040517f08c379a00000000000000000000000000000000000000000000000000000000081526004018080602001828103825260268152602001806119436026913960400191505060405180910390fd5b8073ffffffffffffffffffffffffffffffffffffffff166000809054906101000a900473ffffffffffffffffffffffffffffffffffffffff1673ffffffffffffffffffffffffffffffffffffffff167f8be0079c531659141344cd1fd0a4f28419497f9722a3daafe3b4186f6b6457e060405160405180910390a3806000806101000a81548173ffffffffffffffffffffffffffffffffffffffff021916908373ffffffffffffffffffffffffffffffffffffffff1602179055505056fe4f776e61626c653a206e6577206f776e657220697320746865207a65726f2061646472657373a265627a7a723158202750a26a2461afce1478788a085635ce7ba6442179cab2ddedeec7263d8a84a864736f6c634300050c0032",
  "source": "\r\n// File: @openzeppelin\\contracts\\token\\ERC20\\IERC20.sol\r\n\r\npragma solidity ^0.5.0;\r\n\r\ninterface IERC20 {\r\n\r\n    function totalSupply() external view returns (uint256);\r\n    function balanceOf(address account) external view returns (uint256);\r\n    function name() external view returns (string memory);\r\n    function symbol() external view returns (string memory);\r\n    function transfer(address recipient, uint256 amount) external returns (bool);\r\n}\r\n\r\n// File: @openzeppelin\\contracts\\GSN\\Context.sol\r\n\r\npragma solidity ^0.5.0;\r\n\r\n/*\r\n * @dev Provides information about the current execution context, including the\r\n * sender of the transaction and its data. While these are generally available\r\n * via msg.sender and msg.data, they should not be accessed in such a direct\r\n * manner, since when dealing with GSN meta-transactions the account sending and\r\n * paying for execution may not be the actual sender (as far as an application\r\n * is concerned).\r\n *\r\n * This contract is only required for intermediate, library-like contracts.\r\n */\r\ncontract Context {\r\n    // Empty internal constructor, to prevent people from mistakenly deploying\r\n    // an instance of this contract, which should be used via inheritance.\r\n    constructor () internal { }\r\n    // solhint-disable-previous-line no-empty-blocks\r\n\r\n    function _msgSender() internal view returns (address payable) {\r\n        return msg.sender;\r\n    }\r\n\r\n    function _msgData() internal view returns (bytes memory) {\r\n        this; // silence state mutability warning without generating bytecode - see https://github.com/ethereum/solidity/issues/2691\r\n        return msg.data;\r\n    }\r\n}\r\n\r\n// File: @openzeppelin\\contracts\\ownership\\Ownable.sol\r\n\r\npragma solidity ^0.5.0;\r\n\r\n/**\r\n * @dev Contract module which provides a basic access control mechanism, where\r\n * there is an account (an owner) that can be granted exclusive access to\r\n * specific functions.\r\n *\r\n * This module is used through inheritance. It will make available the modifier\r\n * `onlyOwner`, which can be applied to your functions to restrict their use to\r\n * the owner.\r\n */\r\ncontract Ownable is Context {\r\n    address private _owner;\r\n\r\n    event OwnershipTransferred(address indexed previousOwner, address indexed newOwner);\r\n\r\n    /**\r\n     * @dev Initializes the contract setting the deployer as the initial owner.\r\n     */\r\n    constructor () internal {\r\n        _owner = _msgSender();\r\n        emit OwnershipTransferred(address(0), _owner);\r\n    }\r\n\r\n    /**\r\n     * @dev Returns the address of the current owner.\r\n     */\r\n    function owner() public view returns (address) {\r\n        return _owner;\r\n    }\r\n\r\n    /**\r\n     * @dev Throws if called by any account other than the owner.\r\n     */\r\n    modifier onlyOwner() {\r\n        require(isOwner(), \"Ownable: caller is not the owner\");\r\n        _;\r\n    }\r\n\r\n    /**\r\n     * @dev Returns true if the caller is the current owner.\r\n     */\r\n    function isOwner() public view returns (bool) {\r\n        return _msgSender() == _owner;\r\n    }\r\n\r\n    /**\r\n     * @dev Leaves the contract without owner. It will not be possible to call\r\n     * `onlyOwner` functions anymore. Can only be called by the current owner.\r\n     *\r\n     * NOTE: Renouncing ownership will leave the contract without an owner,\r\n     * thereby removing any functionality that is only available to the owner.\r\n     */\r\n    function renounceOwnership() public onlyOwner {\r\n        emit OwnershipTransferred(_owner, address(0));\r\n        _owner = address(0);\r\n    }\r\n\r\n    /**\r\n     * @dev Transfers ownership of the contract to a new account (`newOwner`).\r\n     * Can only be called by the current owner.\r\n     */\r\n    function transferOwnership(address newOwner) public onlyOwner {\r\n        _transferOwnership(newOwner);\r\n    }\r\n\r\n    /**\r\n     * @dev Transfers ownership of the contract to a new account (`newOwner`).\r\n     */\r\n    function _transferOwnership(address newOwner) internal {\r\n        require(newOwner != address(0), \"Ownable: new owner is the zero address\");\r\n        emit OwnershipTransferred(_owner, newOwner);\r\n        _owner = newOwner;\r\n    }\r\n}\r\n\r\n// File: @openzeppelin\\contracts\\math\\SafeMath.sol\r\n\r\npragma solidity ^0.5.0;\r\n\r\n/**\r\n * @dev Wrappers over Solidity's arithmetic operations with added overflow\r\n * checks.\r\n *\r\n * Arithmetic operations in Solidity wrap on overflow. This can easily result\r\n * in bugs, because programmers usually assume that an overflow raises an\r\n * error, which is the standard behavior in high level programming languages.\r\n * `SafeMath` restores this intuition by reverting the transaction when an\r\n * operation overflows.\r\n *\r\n * Using this library instead of the unchecked operations eliminates an entire\r\n * class of bugs, so it's recommended to use it always.\r\n */\r\nlibrary SafeMath {\r\n    /**\r\n     * @dev Returns the addition of two unsigned integers, reverting on\r\n     * overflow.\r\n     *\r\n     * Counterpart to Solidity's `+` operator.\r\n     *\r\n     * Requirements:\r\n     * - Addition cannot overflow.\r\n     */\r\n    function add(uint256 a, uint256 b) internal pure returns (uint256) {\r\n        uint256 c = a + b;\r\n        require(c >= a, \"SafeMath: addition overflow\");\r\n\r\n        return c;\r\n    }\r\n\r\n    /**\r\n     * @dev Returns the subtraction of two unsigned integers, reverting on\r\n     * overflow (when the result is negative).\r\n     *\r\n     * Counterpart to Solidity's `-` operator.\r\n     *\r\n     * Requirements:\r\n     * - Subtraction cannot overflow.\r\n     */\r\n    function sub(uint256 a, uint256 b) internal pure returns (uint256) {\r\n        return sub(a, b, \"SafeMath: subtraction overflow\");\r\n    }\r\n\r\n    /**\r\n     * @dev Returns the subtraction of two unsigned integers, reverting with custom message on\r\n     * overflow (when the result is negative).\r\n     *\r\n     * Counterpart to Solidity's `-` operator.\r\n     *\r\n     * Requirements:\r\n     * - Subtraction cannot overflow.\r\n     *\r\n     * _Available since v2.4.0._\r\n     */\r\n    function sub(uint256 a, uint256 b, string memory errorMessage) internal pure returns (uint256) {\r\n        require(b <= a, errorMessage);\r\n        uint256 c = a - b;\r\n\r\n        return c;\r\n    }\r\n\r\n    /**\r\n     * @dev Returns the multiplication of two unsigned integers, reverting on\r\n     * overflow.\r\n     *\r\n     * Counterpart to Solidity's `*` operator.\r\n     *\r\n     * Requirements:\r\n     * - Multiplication cannot overflow.\r\n     */\r\n    function mul(uint256 a, uint256 b) internal pure returns (uint256) {\r\n        // Gas optimization: this is cheaper than requiring 'a' not being zero, but the\r\n        // benefit is lost if 'b' is also tested.\r\n        // See: https://github.com/OpenZeppelin/openzeppelin-contracts/pull/522\r\n        if (a == 0) {\r\n            return 0;\r\n        }\r\n\r\n        uint256 c = a * b;\r\n        require(c / a == b, \"SafeMath: multiplication overflow\");\r\n\r\n        return c;\r\n    }\r\n\r\n    /**\r\n     * @dev Returns the integer division of two unsigned integers. Reverts on\r\n     * division by zero. The result is rounded towards zero.\r\n     *\r\n     * Counterpart to Solidity's `/` operator. Note: this function uses a\r\n     * `revert` opcode (which leaves remaining gas untouched) while Solidity\r\n     * uses an invalid opcode to revert (consuming all remaining gas).\r\n     *\r\n     * Requirements:\r\n     * - The divisor cannot be zero.\r\n     */\r\n    function div(uint256 a, uint256 b) internal pure returns (uint256) {\r\n        return div(a, b, \"SafeMath: division by zero\");\r\n    }\r\n\r\n    /**\r\n     * @dev Returns the integer division of two unsigned integers. Reverts with custom message on\r\n     * division by zero. The result is rounded towards zero.\r\n     *\r\n     * Counterpart to Solidity's `/` operator. Note: this function uses a\r\n     * `revert` opcode (which leaves remaining gas untouched) while Solidity\r\n     * uses an invalid opcode to revert (consuming all remaining gas).\r\n     *\r\n     * Requirements:\r\n     * - The divisor cannot be zero.\r\n     *\r\n     * _Available since v2.4.0._\r\n     */\r\n    function div(uint256 a, uint256 b, string memory errorMessage) internal pure returns (uint256) {\r\n        // Solidity only automatically asserts when dividing by 0\r\n        require(b > 0, errorMessage);\r\n        uint256 c = a / b;\r\n        // assert(a == b * c + a % b); // There is no case in which this doesn't hold\r\n\r\n        return c;\r\n    }\r\n\r\n    /**\r\n     * @dev Returns the remainder of dividing two unsigned integers. (unsigned integer modulo),\r\n     * Reverts when dividing by zero.\r\n     *\r\n     * Counterpart to Solidity's `%` operator. This function uses a `revert`\r\n     * opcode (which leaves remaining gas untouched) while Solidity uses an\r\n     * invalid opcode to revert (consuming all remaining gas).\r\n     *\r\n     * Requirements:\r\n     * - The divisor cannot be zero.\r\n     */\r\n    function mod(uint256 a, uint256 b) internal pure returns (uint256) {\r\n        return mod(a, b, \"SafeMath: modulo by zero\");\r\n    }\r\n\r\n    /**\r\n     * @dev Returns the remainder of dividing two unsigned integers. (unsigned integer modulo),\r\n     * Reverts with custom message when dividing by zero.\r\n     *\r\n     * Counterpart to Solidity's `%` operator. This function uses a `revert`\r\n     * opcode (which leaves remaining gas untouched) while Solidity uses an\r\n     * invalid opcode to revert (consuming all remaining gas).\r\n     *\r\n     * Requirements:\r\n     * - The divisor cannot be zero.\r\n     *\r\n     * _Available since v2.4.0._\r\n     */\r\n    function mod(uint256 a, uint256 b, string memory errorMessage) internal pure returns (uint256) {\r\n        require(b != 0, errorMessage);\r\n        return a % b;\r\n    }\r\n}\r\n\r\n// File: @openzeppelin\\contracts\\utils\\Address.sol\r\n\r\npragma solidity ^0.5.5;\r\n\r\n/**\r\n * @dev Collection of functions related to the address type\r\n */\r\nlibrary Address {\r\n    /**\r\n     * @dev Returns true if `account` is a contract.\r\n     *\r\n     * This test is non-exhaustive, and there may be false-negatives: during the\r\n     * execution of a contract's constructor, its address will be reported as\r\n     * not containing a contract.\r\n     *\r\n     * IMPORTANT: It is unsafe to assume that an address for which this\r\n     * function returns false is an externally-owned account (EOA) and not a\r\n     * contract.\r\n     */\r\n    function isContract(address account) internal view returns (bool) {\r\n        // This method relies in extcodesize, which returns 0 for contracts in\r\n        // construction, since the code is only stored at the end of the\r\n        // constructor execution.\r\n\r\n        // According to EIP-1052, 0x0 is the value returned for not-yet created accounts\r\n        // and 0xc5d2460186f7233c927e7db2dcc703c0e500b653ca82273b7bfad8045d85a470 is returned\r\n        // for accounts without code, i.e. `keccak256('')`\r\n        bytes32 codehash;\r\n        bytes32 accountHash = 0xc5d2460186f7233c927e7db2dcc703c0e500b653ca82273b7bfad8045d85a470;\r\n        // solhint-disable-next-line no-inline-assembly\r\n        assembly { codehash := extcodehash(account) }\r\n        return (codehash != 0x0 && codehash != accountHash);\r\n    }\r\n\r\n    /**\r\n     * @dev Converts an `address` into `address payable`. Note that this is\r\n     * simply a type cast: the actual underlying value is not changed.\r\n     *\r\n     * _Available since v2.4.0._\r\n     */\r\n    function toPayable(address account) internal pure returns (address payable) {\r\n        return address(uint160(account));\r\n    }\r\n\r\n    /**\r\n     * @dev Replacement for Solidity's `transfer`: sends `amount` wei to\r\n     * `recipient`, forwarding all available gas and reverting on errors.\r\n     *\r\n     * https://eips.ethereum.org/EIPS/eip-1884[EIP1884] increases the gas cost\r\n     * of certain opcodes, possibly making contracts go over the 2300 gas limit\r\n     * imposed by `transfer`, making them unable to receive funds via\r\n     * `transfer`. {sendValue} removes this limitation.\r\n     *\r\n     * https://diligence.consensys.net/posts/2019/09/stop-using-soliditys-transfer-now/[Learn more].\r\n     *\r\n     * IMPORTANT: because control is transferred to `recipient`, care must be\r\n     * taken to not create reentrancy vulnerabilities. Consider using\r\n     * {ReentrancyGuard} or the\r\n     * https://solidity.readthedocs.io/en/v0.5.11/security-considerations.html#use-the-checks-effects-interactions-pattern[checks-effects-interactions pattern].\r\n     *\r\n     * _Available since v2.4.0._\r\n     */\r\n    function sendValue(address payable recipient, uint256 amount) internal {\r\n        require(address(this).balance >= amount, \"Address: insufficient balance\");\r\n\r\n        // solhint-disable-next-line avoid-call-value\r\n        (bool success, ) = recipient.call.value(amount)(\"\");\r\n        require(success, \"Address: unable to send value, recipient may have reverted\");\r\n    }\r\n}\r\n\r\n\r\ninterface IIEarnAPR {\r\n    function getAPROptions(address _token) external view returns (\r\n      uint256 uniapr,\r\n      uint256 capr,\r\n      uint256 unicapr,\r\n      uint256 iapr,\r\n      uint256 uniiapr,\r\n      uint256 aapr,\r\n      uint256 uniaapr,\r\n      uint256 dapr\r\n    );\r\n}\r\n\r\n\r\ncontract IEarnManager is Ownable {\r\n    using SafeMath for uint;\r\n    using Address for address;\r\n\r\n    address public APR;\r\n\r\n    constructor() public {\r\n        APR = address(0x9CaD8AB10daA9AF1a9D2B878541f41b697268eEC);\r\n    }\r\n\r\n    function recommendSNX() public view returns (\r\n      string memory choice,\r\n      uint256 capr,\r\n      uint256 iapr,\r\n      uint256 aapr,\r\n      uint256 dapr\r\n    ) {\r\n      return recommend(0xC011a73ee8576Fb46F5E1c5751cA3B9Fe0af2a6F);\r\n    }\r\n    function recommendUSDT() public view returns (\r\n      string memory choice,\r\n      uint256 capr,\r\n      uint256 iapr,\r\n      uint256 aapr,\r\n      uint256 dapr\r\n    ) {\r\n      return recommend(0xdAC17F958D2ee523a2206206994597C13D831ec7);\r\n    }\r\n    function recommendBAT() public view returns (\r\n      string memory choice,\r\n      uint256 capr,\r\n      uint256 iapr,\r\n      uint256 aapr,\r\n      uint256 dapr\r\n    ) {\r\n      return recommend(0x0D8775F648430679A709E98d2b0Cb6250d2887EF);\r\n    }\r\n    function recommendMKR() public view returns (\r\n      string memory choice,\r\n      uint256 capr,\r\n      uint256 iapr,\r\n      uint256 aapr,\r\n      uint256 dapr\r\n    ) {\r\n      return recommend(0x9f8F72aA9304c8B593d555F12eF6589cC3A579A2);\r\n    }\r\n    function recommendZRX() public view returns (\r\n      string memory choice,\r\n      uint256 capr,\r\n      uint256 iapr,\r\n      uint256 aapr,\r\n      uint256 dapr\r\n    ) {\r\n      return recommend(0xE41d2489571d322189246DaFA5ebDe1F4699F498);\r\n    }\r\n    function recommendREP() public view returns (\r\n      string memory choice,\r\n      uint256 capr,\r\n      uint256 iapr,\r\n      uint256 aapr,\r\n      uint256 dapr\r\n    ) {\r\n      return recommend(0x1985365e9f78359a9B6AD760e32412f4a445E862);\r\n    }\r\n    function recommendKNC() public view returns (\r\n      string memory choice,\r\n      uint256 capr,\r\n      uint256 iapr,\r\n      uint256 aapr,\r\n      uint256 dapr\r\n    ) {\r\n      return recommend(0xdd974D5C2e2928deA5F71b9825b8b646686BD200);\r\n    }\r\n    function recommendWBTC() public view returns (\r\n      string memory choice,\r\n      uint256 capr,\r\n      uint256 iapr,\r\n      uint256 aapr,\r\n      uint256 dapr\r\n    ) {\r\n      return recommend(0x2260FAC5E5542a773Aa44fBCfeDf7C193bc2C599);\r\n    }\r\n    function recommendLINK() public view returns (\r\n      string memory choice,\r\n      uint256 capr,\r\n      uint256 iapr,\r\n      uint256 aapr,\r\n      uint256 dapr\r\n    ) {\r\n      return recommend(0x514910771AF9Ca656af840dff83E8264EcF986CA);\r\n    }\r\n    function recommendSUSD() public view returns (\r\n      string memory choice,\r\n      uint256 capr,\r\n      uint256 iapr,\r\n      uint256 aapr,\r\n      uint256 dapr\r\n    ) {\r\n      return recommend(0x57Ab1ec28D129707052df4dF418D58a2D46d5f51);\r\n    }\r\n    function recommendDAI() public view returns (\r\n      string memory choice,\r\n      uint256 capr,\r\n      uint256 iapr,\r\n      uint256 aapr,\r\n      uint256 dapr\r\n    ) {\r\n      return recommend(0x6B175474E89094C44Da98b954EedeAC495271d0F);\r\n    }\r\n    function recommendETH() public view returns (\r\n      string memory choice,\r\n      uint256 capr,\r\n      uint256 iapr,\r\n      uint256 aapr,\r\n      uint256 dapr\r\n    ) {\r\n      return recommend(0xEeeeeEeeeEeEeeEeEeEeeEEEeeeeEeeeeeeeEEeE);\r\n    }\r\n    function recommendUSDC() public view returns (\r\n      string memory choice,\r\n      uint256 capr,\r\n      uint256 iapr,\r\n      uint256 aapr,\r\n      uint256 dapr\r\n    ) {\r\n      return recommend(0xA0b86991c6218b36c1d19D4a2e9Eb0cE3606eB48);\r\n    }\r\n\r\n    function recommend(address _token) public view returns (\r\n      string memory choice,\r\n      uint256 capr,\r\n      uint256 iapr,\r\n      uint256 aapr,\r\n      uint256 dapr\r\n    ) {\r\n      (,capr,,iapr,,aapr,,dapr) = IIEarnAPR(APR).getAPROptions(_token);\r\n      uint256 max = 0;\r\n      if (capr > max) {\r\n        max = capr;\r\n      }\r\n      if (iapr > max) {\r\n        max = iapr;\r\n      }\r\n      if (aapr > max) {\r\n        max = aapr;\r\n      }\r\n      if (dapr > max) {\r\n        max = dapr;\r\n      }\r\n      choice = 'None';\r\n\r\n      if (max == dapr) {\r\n        choice = 'dYdX';\r\n      }\r\n      if (max == aapr) {\r\n        choice = 'Aave';\r\n      }\r\n      if (max == iapr) {\r\n        choice = 'Fulcrum';\r\n      }\r\n      if (max == capr) {\r\n        choice = 'Compound';\r\n      }\r\n      return (\r\n        choice,\r\n        capr,\r\n        iapr,\r\n        aapr,\r\n        dapr\r\n      );\r\n    }\r\n\r\n    /* Decision trees\r\n\r\n    */\r\n\r\n    /* Net outcomes;\r\n\r\n      BAT: cBAT vs aBAT\r\n      DAI: cDAI vs iDAI vs aDAI vs dDAI\r\n      KNC: iKNC vs aKNC\r\n      LINK: iLINK vs aLINK\r\n      MKR: aMKR\r\n      REP: cREP vs aREP\r\n      SNX: aSNX\r\n      sUSD: iSUSD vs aSUSD\r\n      USDC: cUSDC vs iUSDC vs aUSDC vs dUSDC\r\n      USDT: aUSDT\r\n      wBTC: cWBTC vs iWTBC vs aWBTC\r\n      ZRX: cZRX vs iZRX vs aZRX\r\n\r\n    */\r\n\r\n    function set_new_APR(address _new_APR) public onlyOwner {\r\n        APR = _new_APR;\r\n    }\r\n\r\n    // incase of half-way error\r\n    function inCaseTokenGetsStuck(IERC20 _TokenAddress) onlyOwner public {\r\n        uint qty = _TokenAddress.balanceOf(address(this));\r\n        _TokenAddress.transfer(msg.sender, qty);\r\n    }\r\n    // incase of half-way error\r\n    function inCaseETHGetsStuck() onlyOwner public{\r\n        (bool result, ) = msg.sender.call.value(address(this).balance)(\"\");\r\n        require(result, \"transfer of ETH failed\");\r\n    }\r\n}\r\n",
  "sourcePath": "D:/ftm/uniswap-roi/contracts/IEarnManager.sol",
  "compiler": {
    "name": "solc",
    "version": "0.5.12+commit.7709ece9.Emscripten.clang"
  },
  "schemaVersion": "3.0.19",
  "updatedAt": "2020-02-04T03:03:19.682Z",
  "devdoc": {
    "methods": {
      "isOwner()": {
        "details": "Returns true if the caller is the current owner."
      },
      "owner()": {
        "details": "Returns the address of the current owner."
      },
      "renounceOwnership()": {
        "details": "Leaves the contract without owner. It will not be possible to call `onlyOwner` functions anymore. Can only be called by the current owner.      * NOTE: Renouncing ownership will leave the contract without an owner, thereby removing any functionality that is only available to the owner."
      },
      "transferOwnership(address)": {
        "details": "Transfers ownership of the contract to a new account (`newOwner`). Can only be called by the current owner."
      }
    }
  },
  "userdoc": {
    "methods": {}
  }
}