{
  "contractName": "UniswapAPR",
  "abi": [
    {
      "inputs": [],
      "payable": false,
      "stateMutability": "nonpayable",
      "type": "constructor"
    },
    {
      "anonymous": false,
      "inputs": [
        {
          "indexed": true,
          "internalType": "address",
          "name": "previousOwner",
          "type": "address"
        },
        {
          "indexed": true,
          "internalType": "address",
          "name": "newOwner",
          "type": "address"
        }
      ],
      "name": "OwnershipTransferred",
      "type": "event"
    },
    {
      "constant": true,
      "inputs": [],
      "name": "ADAICreateAt",
      "outputs": [
        {
          "internalType": "uint256",
          "name": "",
          "type": "uint256"
        }
      ],
      "payable": false,
      "stateMutability": "view",
      "type": "function"
    },
    {
      "constant": true,
      "inputs": [],
      "name": "CDAICreateAt",
      "outputs": [
        {
          "internalType": "uint256",
          "name": "",
          "type": "uint256"
        }
      ],
      "payable": false,
      "stateMutability": "view",
      "type": "function"
    },
    {
      "constant": true,
      "inputs": [],
      "name": "CETHCreateAt",
      "outputs": [
        {
          "internalType": "uint256",
          "name": "",
          "type": "uint256"
        }
      ],
      "payable": false,
      "stateMutability": "view",
      "type": "function"
    },
    {
      "constant": true,
      "inputs": [],
      "name": "CHAI",
      "outputs": [
        {
          "internalType": "address",
          "name": "",
          "type": "address"
        }
      ],
      "payable": false,
      "stateMutability": "view",
      "type": "function"
    },
    {
      "constant": true,
      "inputs": [],
      "name": "CHAICreateAt",
      "outputs": [
        {
          "internalType": "uint256",
          "name": "",
          "type": "uint256"
        }
      ],
      "payable": false,
      "stateMutability": "view",
      "type": "function"
    },
    {
      "constant": true,
      "inputs": [],
      "name": "CSAICreateAt",
      "outputs": [
        {
          "internalType": "uint256",
          "name": "",
          "type": "uint256"
        }
      ],
      "payable": false,
      "stateMutability": "view",
      "type": "function"
    },
    {
      "constant": true,
      "inputs": [],
      "name": "CUSDCCreateAt",
      "outputs": [
        {
          "internalType": "uint256",
          "name": "",
          "type": "uint256"
        }
      ],
      "payable": false,
      "stateMutability": "view",
      "type": "function"
    },
    {
      "constant": true,
      "inputs": [],
      "name": "DAICreateAt",
      "outputs": [
        {
          "internalType": "uint256",
          "name": "",
          "type": "uint256"
        }
      ],
      "payable": false,
      "stateMutability": "view",
      "type": "function"
    },
    {
      "constant": true,
      "inputs": [],
      "name": "IDAICreateAt",
      "outputs": [
        {
          "internalType": "uint256",
          "name": "",
          "type": "uint256"
        }
      ],
      "payable": false,
      "stateMutability": "view",
      "type": "function"
    },
    {
      "constant": true,
      "inputs": [],
      "name": "ISAICreateAt",
      "outputs": [
        {
          "internalType": "uint256",
          "name": "",
          "type": "uint256"
        }
      ],
      "payable": false,
      "stateMutability": "view",
      "type": "function"
    },
    {
      "constant": true,
      "inputs": [],
      "name": "SUSDCreateAt",
      "outputs": [
        {
          "internalType": "uint256",
          "name": "",
          "type": "uint256"
        }
      ],
      "payable": false,
      "stateMutability": "view",
      "type": "function"
    },
    {
      "constant": true,
      "inputs": [],
      "name": "TUSDCreateAt",
      "outputs": [
        {
          "internalType": "uint256",
          "name": "",
          "type": "uint256"
        }
      ],
      "payable": false,
      "stateMutability": "view",
      "type": "function"
    },
    {
      "constant": true,
      "inputs": [],
      "name": "UNIROI",
      "outputs": [
        {
          "internalType": "address",
          "name": "",
          "type": "address"
        }
      ],
      "payable": false,
      "stateMutability": "view",
      "type": "function"
    },
    {
      "constant": true,
      "inputs": [],
      "name": "USDCCreateAt",
      "outputs": [
        {
          "internalType": "uint256",
          "name": "",
          "type": "uint256"
        }
      ],
      "payable": false,
      "stateMutability": "view",
      "type": "function"
    },
    {
      "constant": true,
      "inputs": [],
      "name": "blocksPerYear",
      "outputs": [
        {
          "internalType": "uint256",
          "name": "",
          "type": "uint256"
        }
      ],
      "payable": false,
      "stateMutability": "view",
      "type": "function"
    },
    {
      "constant": true,
      "inputs": [],
      "name": "isOwner",
      "outputs": [
        {
          "internalType": "bool",
          "name": "",
          "type": "bool"
        }
      ],
      "payable": false,
      "stateMutability": "view",
      "type": "function"
    },
    {
      "constant": true,
      "inputs": [],
      "name": "owner",
      "outputs": [
        {
          "internalType": "address",
          "name": "",
          "type": "address"
        }
      ],
      "payable": false,
      "stateMutability": "view",
      "type": "function"
    },
    {
      "constant": false,
      "inputs": [],
      "name": "renounceOwnership",
      "outputs": [],
      "payable": false,
      "stateMutability": "nonpayable",
      "type": "function"
    },
    {
      "constant": false,
      "inputs": [
        {
          "internalType": "address",
          "name": "newOwner",
          "type": "address"
        }
      ],
      "name": "transferOwnership",
      "outputs": [],
      "payable": false,
      "stateMutability": "nonpayable",
      "type": "function"
    },
    {
      "constant": false,
      "inputs": [
        {
          "internalType": "address",
          "name": "_new_UNIROI",
          "type": "address"
        }
      ],
      "name": "set_new_UNIROI",
      "outputs": [],
      "payable": false,
      "stateMutability": "nonpayable",
      "type": "function"
    },
    {
      "constant": false,
      "inputs": [
        {
          "internalType": "address",
          "name": "_new_CHAI",
          "type": "address"
        }
      ],
      "name": "set_new_CHAI",
      "outputs": [],
      "payable": false,
      "stateMutability": "nonpayable",
      "type": "function"
    },
    {
      "constant": false,
      "inputs": [
        {
          "internalType": "uint256",
          "name": "_new_blocksPerYear",
          "type": "uint256"
        }
      ],
      "name": "set_new_blocksPerYear",
      "outputs": [],
      "payable": false,
      "stateMutability": "nonpayable",
      "type": "function"
    },
    {
      "constant": true,
      "inputs": [],
      "name": "getBlocksPerYear",
      "outputs": [
        {
          "internalType": "uint256",
          "name": "",
          "type": "uint256"
        }
      ],
      "payable": false,
      "stateMutability": "view",
      "type": "function"
    },
    {
      "constant": true,
      "inputs": [],
      "name": "calcUniswapAPRADAI",
      "outputs": [
        {
          "internalType": "uint256",
          "name": "",
          "type": "uint256"
        },
        {
          "internalType": "uint256",
          "name": "",
          "type": "uint256"
        }
      ],
      "payable": false,
      "stateMutability": "view",
      "type": "function"
    },
    {
      "constant": true,
      "inputs": [],
      "name": "calcUniswapAPRCDAI",
      "outputs": [
        {
          "internalType": "uint256",
          "name": "",
          "type": "uint256"
        },
        {
          "internalType": "uint256",
          "name": "",
          "type": "uint256"
        }
      ],
      "payable": false,
      "stateMutability": "view",
      "type": "function"
    },
    {
      "constant": true,
      "inputs": [],
      "name": "calcUniswapAPRCETH",
      "outputs": [
        {
          "internalType": "uint256",
          "name": "",
          "type": "uint256"
        },
        {
          "internalType": "uint256",
          "name": "",
          "type": "uint256"
        }
      ],
      "payable": false,
      "stateMutability": "view",
      "type": "function"
    },
    {
      "constant": true,
      "inputs": [],
      "name": "calcUniswapAPRCSAI",
      "outputs": [
        {
          "internalType": "uint256",
          "name": "",
          "type": "uint256"
        },
        {
          "internalType": "uint256",
          "name": "",
          "type": "uint256"
        }
      ],
      "payable": false,
      "stateMutability": "view",
      "type": "function"
    },
    {
      "constant": true,
      "inputs": [],
      "name": "calcUniswapAPRCUSDC",
      "outputs": [
        {
          "internalType": "uint256",
          "name": "",
          "type": "uint256"
        },
        {
          "internalType": "uint256",
          "name": "",
          "type": "uint256"
        }
      ],
      "payable": false,
      "stateMutability": "view",
      "type": "function"
    },
    {
      "constant": true,
      "inputs": [],
      "name": "calcUniswapAPRDAI",
      "outputs": [
        {
          "internalType": "uint256",
          "name": "",
          "type": "uint256"
        },
        {
          "internalType": "uint256",
          "name": "",
          "type": "uint256"
        }
      ],
      "payable": false,
      "stateMutability": "view",
      "type": "function"
    },
    {
      "constant": true,
      "inputs": [],
      "name": "calcUniswapAPRIDAI",
      "outputs": [
        {
          "internalType": "uint256",
          "name": "",
          "type": "uint256"
        },
        {
          "internalType": "uint256",
          "name": "",
          "type": "uint256"
        }
      ],
      "payable": false,
      "stateMutability": "view",
      "type": "function"
    },
    {
      "constant": true,
      "inputs": [],
      "name": "calcUniswapAPRISAI",
      "outputs": [
        {
          "internalType": "uint256",
          "name": "",
          "type": "uint256"
        },
        {
          "internalType": "uint256",
          "name": "",
          "type": "uint256"
        }
      ],
      "payable": false,
      "stateMutability": "view",
      "type": "function"
    },
    {
      "constant": true,
      "inputs": [],
      "name": "calcUniswapAPRSUSD",
      "outputs": [
        {
          "internalType": "uint256",
          "name": "",
          "type": "uint256"
        },
        {
          "internalType": "uint256",
          "name": "",
          "type": "uint256"
        }
      ],
      "payable": false,
      "stateMutability": "view",
      "type": "function"
    },
    {
      "constant": true,
      "inputs": [],
      "name": "calcUniswapAPRTUSD",
      "outputs": [
        {
          "internalType": "uint256",
          "name": "",
          "type": "uint256"
        },
        {
          "internalType": "uint256",
          "name": "",
          "type": "uint256"
        }
      ],
      "payable": false,
      "stateMutability": "view",
      "type": "function"
    },
    {
      "constant": true,
      "inputs": [],
      "name": "calcUniswapAPRUSDC",
      "outputs": [
        {
          "internalType": "uint256",
          "name": "",
          "type": "uint256"
        },
        {
          "internalType": "uint256",
          "name": "",
          "type": "uint256"
        }
      ],
      "payable": false,
      "stateMutability": "view",
      "type": "function"
    },
    {
      "constant": true,
      "inputs": [],
      "name": "calcUniswapAPRCHAI",
      "outputs": [
        {
          "internalType": "uint256",
          "name": "",
          "type": "uint256"
        },
        {
          "internalType": "uint256",
          "name": "",
          "type": "uint256"
        }
      ],
      "payable": false,
      "stateMutability": "view",
      "type": "function"
    },
    {
      "constant": true,
      "inputs": [
        {
          "internalType": "uint256",
          "name": "roi",
          "type": "uint256"
        },
        {
          "internalType": "uint256",
          "name": "createdAt",
          "type": "uint256"
        }
      ],
      "name": "calcUniswapAPRFromROI",
      "outputs": [
        {
          "internalType": "uint256",
          "name": "",
          "type": "uint256"
        }
      ],
      "payable": false,
      "stateMutability": "view",
      "type": "function"
    },
    {
      "constant": true,
      "inputs": [
        {
          "internalType": "address",
          "name": "token",
          "type": "address"
        },
        {
          "internalType": "uint256",
          "name": "createdAt",
          "type": "uint256"
        }
      ],
      "name": "calcUniswapAPR",
      "outputs": [
        {
          "internalType": "uint256",
          "name": "",
          "type": "uint256"
        }
      ],
      "payable": false,
      "stateMutability": "view",
      "type": "function"
    },
    {
      "constant": false,
      "inputs": [
        {
          "internalType": "contract IERC20",
          "name": "_TokenAddress",
          "type": "address"
        }
      ],
      "name": "inCaseTokenGetsStuck",
      "outputs": [],
      "payable": false,
      "stateMutability": "nonpayable",
      "type": "function"
    },
    {
      "constant": false,
      "inputs": [],
      "name": "inCaseETHGetsStuck",
      "outputs": [],
      "payable": false,
      "stateMutability": "nonpayable",
      "type": "function"
    }
  ],
  "bytecode": "0x608060405234801561001057600080fd5b5061001f61020b60201b60201c565b6000806101000a81548173ffffffffffffffffffffffffffffffffffffffff021916908373ffffffffffffffffffffffffffffffffffffffff1602179055506000809054906101000a900473ffffffffffffffffffffffffffffffffffffffff1673ffffffffffffffffffffffffffffffffffffffff16600073ffffffffffffffffffffffffffffffffffffffff167f8be0079c531659141344cd1fd0a4f28419497f9722a3daafe3b4186f6b6457e060405160405180910390a3628d1f11600181905550628956b56002819055506275be1e6003819055506275db5b600481905550627815e0600581905550628867426006819055506288f311600781905550627f9a0a600881905550628396446009819055506276edb4600a81905550626780d8600b819055506289c44a600c8190555073d04ca0ae1cd8085438fdd8c22a76246f315c2687600d60006101000a81548173ffffffffffffffffffffffffffffffffffffffff021916908373ffffffffffffffffffffffffffffffffffffffff1602179055507306af07097c9eeb7fd685c692751d5c66db49c215600e60006101000a81548173ffffffffffffffffffffffffffffffffffffffff021916908373ffffffffffffffffffffffffffffffffffffffff16021790555062201480600f81905550610213565b600033905090565b612341806102226000396000f3fe608060405234801561001057600080fd5b506004361061023d5760003560e01c80638da5cb5b1161013b578063bfccfd25116100b8578063f2fde38b1161007c578063f2fde38b146107e3578063f60a15ed14610827578063f61aab4614610831578063f78c98c214610856578063fd856965146108845761023d565b8063bfccfd25146106f3578063c4b5627314610711578063caa905dd1461075b578063cb649b6014610779578063e828a341146107975761023d565b80639884793b116100ff5780639884793b14610604578063a385fb9614610622578063a7a8a2e414610640578063a9b946e914610665578063b6dbf9ce146106a95761023d565b80638da5cb5b1461053e5780638f32d59b1461058857806394949591146105aa57806394b0cfdb146105c857806395efa6fe146105e65761023d565b806368fc13be116101c957806379234b961161018d57806379234b961461044f57806379fd4c0d1461046d5780638148b446146104925780638509ef45146104b75780638bd917eb146104dc5761023d565b806368fc13be146103995780636984ef7e146103be5780636f3a08e9146103e3578063715018a614610427578063741de148146104315761023d565b8063409733d211610210578063409733d2146102ee5780634281e8cc1461030c5780634b106a5e1461032a5780635eab41281461034f578063661c5552146103745761023d565b80630ef57fa9146102425780630f15d482146102675780632e8d6e181461028c5780632ea67f98146102d0575b600080fd5b61024a6108a2565b604051808381526020018281526020019250505060405180910390f35b61026f61096f565b604051808381526020018281526020019250505060405180910390f35b6102ce600480360360208110156102a257600080fd5b81019080803573ffffffffffffffffffffffffffffffffffffffff169060200190929190505050610a3c565b005b6102d8610c39565b6040518082815260200191505060405180910390f35b6102f6610c3f565b6040518082815260200191505060405180910390f35b610314610c45565b6040518082815260200191505060405180910390f35b610332610c4b565b604051808381526020018281526020019250505060405180910390f35b610357610d18565b604051808381526020018281526020019250505060405180910390f35b61037c610de5565b604051808381526020018281526020019250505060405180910390f35b6103a1610eb2565b604051808381526020018281526020019250505060405180910390f35b6103c6610f7f565b604051808381526020018281526020019250505060405180910390f35b610425600480360360208110156103f957600080fd5b81019080803573ffffffffffffffffffffffffffffffffffffffff1690602001909291905050506110a5565b005b61042f611163565b005b61043961129c565b6040518082815260200191505060405180910390f35b6104576112a6565b6040518082815260200191505060405180910390f35b6104756112ac565b604051808381526020018281526020019250505060405180910390f35b61049a611379565b604051808381526020018281526020019250505060405180910390f35b6104bf611446565b604051808381526020018281526020019250505060405180910390f35b610528600480360360408110156104f257600080fd5b81019080803573ffffffffffffffffffffffffffffffffffffffff16906020019092919080359060200190929190505050611513565b6040518082815260200191505060405180910390f35b610546611739565b604051808273ffffffffffffffffffffffffffffffffffffffff1673ffffffffffffffffffffffffffffffffffffffff16815260200191505060405180910390f35b610590611762565b604051808215151515815260200191505060405180910390f35b6105b26117c0565b6040518082815260200191505060405180910390f35b6105d06117c6565b6040518082815260200191505060405180910390f35b6105ee6117cc565b6040518082815260200191505060405180910390f35b61060c6117d2565b6040518082815260200191505060405180910390f35b61062a6117d8565b6040518082815260200191505060405180910390f35b6106486117de565b604051808381526020018281526020019250505060405180910390f35b6106a76004803603602081101561067b57600080fd5b81019080803573ffffffffffffffffffffffffffffffffffffffff1690602001909291905050506118ab565b005b6106b1611969565b604051808273ffffffffffffffffffffffffffffffffffffffff1673ffffffffffffffffffffffffffffffffffffffff16815260200191505060405180910390f35b6106fb61198f565b6040518082815260200191505060405180910390f35b610719611995565b604051808273ffffffffffffffffffffffffffffffffffffffff1673ffffffffffffffffffffffffffffffffffffffff16815260200191505060405180910390f35b6107636119bb565b6040518082815260200191505060405180910390f35b6107816119c1565b6040518082815260200191505060405180910390f35b6107cd600480360360408110156107ad57600080fd5b8101908080359060200190929190803590602001909291905050506119c7565b6040518082815260200191505060405180910390f35b610825600480360360208110156107f957600080fd5b81019080803573ffffffffffffffffffffffffffffffffffffffff169060200190929190505050611b04565b005b61082f611b8a565b005b610839611cfa565b604051808381526020018281526020019250505060405180910390f35b6108826004803603602081101561086c57600080fd5b8101908080359060200190929190505050611dc7565b005b61088c611e4b565b6040518082815260200191505060405180910390f35b600080600080600d60009054906101000a900473ffffffffffffffffffffffffffffffffffffffff1673ffffffffffffffffffffffffffffffffffffffff1663137a43db6040518163ffffffff1660e01b8152600401604080518083038186803b15801561090f57600080fd5b505afa158015610923573d6000803e3d6000fd5b505050506040513d604081101561093957600080fd5b81019080805190602001909291908051906020019092919050505091509150610964826007546119c7565b819350935050509091565b600080600080600d60009054906101000a900473ffffffffffffffffffffffffffffffffffffffff1673ffffffffffffffffffffffffffffffffffffffff16631aae09596040518163ffffffff1660e01b8152600401604080518083038186803b1580156109dc57600080fd5b505afa1580156109f0573d6000803e3d6000fd5b505050506040513d6040811015610a0657600080fd5b81019080805190602001909291908051906020019092919050505091509150610a31826005546119c7565b819350935050509091565b610a44611762565b610ab6576040517f08c379a00000000000000000000000000000000000000000000000000000000081526004018080602001828103825260208152602001807f4f776e61626c653a2063616c6c6572206973206e6f7420746865206f776e657281525060200191505060405180910390fd5b60008173ffffffffffffffffffffffffffffffffffffffff166370a08231306040518263ffffffff1660e01b8152600401808273ffffffffffffffffffffffffffffffffffffffff1673ffffffffffffffffffffffffffffffffffffffff16815260200191505060206040518083038186803b158015610b3557600080fd5b505afa158015610b49573d6000803e3d6000fd5b505050506040513d6020811015610b5f57600080fd5b810190808051906020019092919050505090508173ffffffffffffffffffffffffffffffffffffffff1663a9059cbb33836040518363ffffffff1660e01b8152600401808373ffffffffffffffffffffffffffffffffffffffff1673ffffffffffffffffffffffffffffffffffffffff16815260200182815260200192505050602060405180830381600087803b158015610bf957600080fd5b505af1158015610c0d573d6000803e3d6000fd5b505050506040513d6020811015610c2357600080fd5b8101908080519060200190929190505050505050565b60025481565b60075481565b600a5481565b600080600080600d60009054906101000a900473ffffffffffffffffffffffffffffffffffffffff1673ffffffffffffffffffffffffffffffffffffffff1663ce3a2ffe6040518163ffffffff1660e01b8152600401604080518083038186803b158015610cb857600080fd5b505afa158015610ccc573d6000803e3d6000fd5b505050506040513d6040811015610ce257600080fd5b81019080805190602001909291908051906020019092919050505091509150610d0d826001546119c7565b819350935050509091565b600080600080600d60009054906101000a900473ffffffffffffffffffffffffffffffffffffffff1673ffffffffffffffffffffffffffffffffffffffff1663841552b26040518163ffffffff1660e01b8152600401604080518083038186803b158015610d8557600080fd5b505afa158015610d99573d6000803e3d6000fd5b505050506040513d6040811015610daf57600080fd5b81019080805190602001909291908051906020019092919050505091509150610dda826009546119c7565b819350935050509091565b600080600080600d60009054906101000a900473ffffffffffffffffffffffffffffffffffffffff1673ffffffffffffffffffffffffffffffffffffffff1663b315de786040518163ffffffff1660e01b8152600401604080518083038186803b158015610e5257600080fd5b505afa158015610e66573d6000803e3d6000fd5b505050506040513d6040811015610e7c57600080fd5b81019080805190602001909291908051906020019092919050505091509150610ea782600a546119c7565b819350935050509091565b600080600080600d60009054906101000a900473ffffffffffffffffffffffffffffffffffffffff1673ffffffffffffffffffffffffffffffffffffffff16639af798d16040518163ffffffff1660e01b8152600401604080518083038186803b158015610f1f57600080fd5b505afa158015610f33573d6000803e3d6000fd5b505050506040513d6040811015610f4957600080fd5b81019080805190602001909291908051906020019092919050505091509150610f7482600b546119c7565b819350935050509091565b600080600080600d60009054906101000a900473ffffffffffffffffffffffffffffffffffffffff1673ffffffffffffffffffffffffffffffffffffffff166357c7b099600e60009054906101000a900473ffffffffffffffffffffffffffffffffffffffff166040518263ffffffff1660e01b8152600401808273ffffffffffffffffffffffffffffffffffffffff1673ffffffffffffffffffffffffffffffffffffffff168152602001915050604080518083038186803b15801561104557600080fd5b505afa158015611059573d6000803e3d6000fd5b505050506040513d604081101561106f57600080fd5b8101908080519060200190929190805190602001909291905050509150915061109a82600c546119c7565b819350935050509091565b6110ad611762565b61111f576040517f08c379a00000000000000000000000000000000000000000000000000000000081526004018080602001828103825260208152602001807f4f776e61626c653a2063616c6c6572206973206e6f7420746865206f776e657281525060200191505060405180910390fd5b80600e60006101000a81548173ffffffffffffffffffffffffffffffffffffffff021916908373ffffffffffffffffffffffffffffffffffffffff16021790555050565b61116b611762565b6111dd576040517f08c379a00000000000000000000000000000000000000000000000000000000081526004018080602001828103825260208152602001807f4f776e61626c653a2063616c6c6572206973206e6f7420746865206f776e657281525060200191505060405180910390fd5b600073ffffffffffffffffffffffffffffffffffffffff166000809054906101000a900473ffffffffffffffffffffffffffffffffffffffff1673ffffffffffffffffffffffffffffffffffffffff167f8be0079c531659141344cd1fd0a4f28419497f9722a3daafe3b4186f6b6457e060405160405180910390a360008060006101000a81548173ffffffffffffffffffffffffffffffffffffffff021916908373ffffffffffffffffffffffffffffffffffffffff160217905550565b6000600f54905090565b60015481565b600080600080600d60009054906101000a900473ffffffffffffffffffffffffffffffffffffffff1673ffffffffffffffffffffffffffffffffffffffff166373ace9e36040518163ffffffff1660e01b8152600401604080518083038186803b15801561131957600080fd5b505afa15801561132d573d6000803e3d6000fd5b505050506040513d604081101561134357600080fd5b8101908080519060200190929190805190602001909291905050509150915061136e826006546119c7565b819350935050509091565b600080600080600d60009054906101000a900473ffffffffffffffffffffffffffffffffffffffff1673ffffffffffffffffffffffffffffffffffffffff16633801a6496040518163ffffffff1660e01b8152600401604080518083038186803b1580156113e657600080fd5b505afa1580156113fa573d6000803e3d6000fd5b505050506040513d604081101561141057600080fd5b8101908080519060200190929190805190602001909291905050509150915061143b826008546119c7565b819350935050509091565b600080600080600d60009054906101000a900473ffffffffffffffffffffffffffffffffffffffff1673ffffffffffffffffffffffffffffffffffffffff1663710393046040518163ffffffff1660e01b8152600401604080518083038186803b1580156114b357600080fd5b505afa1580156114c7573d6000803e3d6000fd5b505050506040513d60408110156114dd57600080fd5b81019080805190602001909291908051906020019092919050505091509150611508826004546119c7565b819350935050509091565b600043821061158a576040517f08c379a00000000000000000000000000000000000000000000000000000000081526004018080602001828103825260168152602001807f696e76616c696420637265617465417420626c6f636b0000000000000000000081525060200191505060405180910390fd5b6000600d60009054906101000a900473ffffffffffffffffffffffffffffffffffffffff1673ffffffffffffffffffffffffffffffffffffffff166357c7b099856040518263ffffffff1660e01b8152600401808273ffffffffffffffffffffffffffffffffffffffff1673ffffffffffffffffffffffffffffffffffffffff168152602001915050604080518083038186803b15801561162a57600080fd5b505afa15801561163e573d6000803e3d6000fd5b505050506040513d604081101561165457600080fd5b81019080805190602001909291908051906020019092919050505050905060006116878443611e5190919063ffffffff16565b905060006116cb826116bd600f546116af66038d7ea4c6800088611e9b90919063ffffffff16565b611e9b90919063ffffffff16565b611f2190919063ffffffff16565b905060006116fe836116f0670de0b6b3a7640000600f54611e9b90919063ffffffff16565b611f2190919063ffffffff16565b905061172d8161171f670de0b6b3a764000085611f6b90919063ffffffff16565b611e5190919063ffffffff16565b94505050505092915050565b60008060009054906101000a900473ffffffffffffffffffffffffffffffffffffffff16905090565b60008060009054906101000a900473ffffffffffffffffffffffffffffffffffffffff1673ffffffffffffffffffffffffffffffffffffffff166117a4611ff3565b73ffffffffffffffffffffffffffffffffffffffff1614905090565b60045481565b60055481565b60085481565b60035481565b600f5481565b600080600080600d60009054906101000a900473ffffffffffffffffffffffffffffffffffffffff1673ffffffffffffffffffffffffffffffffffffffff1663024a75626040518163ffffffff1660e01b8152600401604080518083038186803b15801561184b57600080fd5b505afa15801561185f573d6000803e3d6000fd5b505050506040513d604081101561187557600080fd5b810190808051906020019092919080519060200190929190505050915091506118a0826002546119c7565b819350935050509091565b6118b3611762565b611925576040517f08c379a00000000000000000000000000000000000000000000000000000000081526004018080602001828103825260208152602001807f4f776e61626c653a2063616c6c6572206973206e6f7420746865206f776e657281525060200191505060405180910390fd5b80600d60006101000a81548173ffffffffffffffffffffffffffffffffffffffff021916908373ffffffffffffffffffffffffffffffffffffffff16021790555050565b600e60009054906101000a900473ffffffffffffffffffffffffffffffffffffffff1681565b60095481565b600d60009054906101000a900473ffffffffffffffffffffffffffffffffffffffff1681565b600c5481565b60065481565b6000438210611a3e576040517f08c379a00000000000000000000000000000000000000000000000000000000081526004018080602001828103825260168152602001807f696e76616c696420637265617465417420626c6f636b0000000000000000000081525060200191505060405180910390fd5b6000611a538343611e5190919063ffffffff16565b90506000611a9782611a89600f54611a7b66038d7ea4c680008a611e9b90919063ffffffff16565b611e9b90919063ffffffff16565b611f2190919063ffffffff16565b90506000611aca83611abc670de0b6b3a7640000600f54611e9b90919063ffffffff16565b611f2190919063ffffffff16565b9050611af981611aeb670de0b6b3a764000085611f6b90919063ffffffff16565b611e5190919063ffffffff16565b935050505092915050565b611b0c611762565b611b7e576040517f08c379a00000000000000000000000000000000000000000000000000000000081526004018080602001828103825260208152602001807f4f776e61626c653a2063616c6c6572206973206e6f7420746865206f776e657281525060200191505060405180910390fd5b611b8781611ffb565b50565b611b92611762565b611c04576040517f08c379a00000000000000000000000000000000000000000000000000000000081526004018080602001828103825260208152602001807f4f776e61626c653a2063616c6c6572206973206e6f7420746865206f776e657281525060200191505060405180910390fd5b60003373ffffffffffffffffffffffffffffffffffffffff163073ffffffffffffffffffffffffffffffffffffffff163160405180600001905060006040518083038185875af1925050503d8060008114611c7b576040519150601f19603f3d011682016040523d82523d6000602084013e611c80565b606091505b5050905080611cf7576040517f08c379a00000000000000000000000000000000000000000000000000000000081526004018080602001828103825260168152602001807f7472616e73666572206f6620455448206661696c65640000000000000000000081525060200191505060405180910390fd5b50565b600080600080600d60009054906101000a900473ffffffffffffffffffffffffffffffffffffffff1673ffffffffffffffffffffffffffffffffffffffff166336cc9e7f6040518163ffffffff1660e01b8152600401604080518083038186803b158015611d6757600080fd5b505afa158015611d7b573d6000803e3d6000fd5b505050506040513d6040811015611d9157600080fd5b81019080805190602001909291908051906020019092919050505091509150611dbc826003546119c7565b819350935050509091565b611dcf611762565b611e41576040517f08c379a00000000000000000000000000000000000000000000000000000000081526004018080602001828103825260208152602001807f4f776e61626c653a2063616c6c6572206973206e6f7420746865206f776e657281525060200191505060405180910390fd5b80600f8190555050565b600b5481565b6000611e9383836040518060400160405280601e81526020017f536166654d6174683a207375627472616374696f6e206f766572666c6f77000081525061213f565b905092915050565b600080831415611eae5760009050611f1b565b6000828402905082848281611ebf57fe5b0414611f16576040517f08c379a00000000000000000000000000000000000000000000000000000000081526004018080602001828103825260218152602001806122ec6021913960400191505060405180910390fd5b809150505b92915050565b6000611f6383836040518060400160405280601a81526020017f536166654d6174683a206469766973696f6e206279207a65726f0000000000008152506121ff565b905092915050565b600080828401905083811015611fe9576040517f08c379a000000000000000000000000000000000000000000000000000000000815260040180806020018281038252601b8152602001807f536166654d6174683a206164646974696f6e206f766572666c6f77000000000081525060200191505060405180910390fd5b8091505092915050565b600033905090565b600073ffffffffffffffffffffffffffffffffffffffff168173ffffffffffffffffffffffffffffffffffffffff161415612081576040517f08c379a00000000000000000000000000000000000000000000000000000000081526004018080602001828103825260268152602001806122c66026913960400191505060405180910390fd5b8073ffffffffffffffffffffffffffffffffffffffff166000809054906101000a900473ffffffffffffffffffffffffffffffffffffffff1673ffffffffffffffffffffffffffffffffffffffff167f8be0079c531659141344cd1fd0a4f28419497f9722a3daafe3b4186f6b6457e060405160405180910390a3806000806101000a81548173ffffffffffffffffffffffffffffffffffffffff021916908373ffffffffffffffffffffffffffffffffffffffff16021790555050565b60008383111582906121ec576040517f08c379a00000000000000000000000000000000000000000000000000000000081526004018080602001828103825283818151815260200191508051906020019080838360005b838110156121b1578082015181840152602081019050612196565b50505050905090810190601f1680156121de5780820380516001836020036101000a031916815260200191505b509250505060405180910390fd5b5060008385039050809150509392505050565b600080831182906122ab576040517f08c379a00000000000000000000000000000000000000000000000000000000081526004018080602001828103825283818151815260200191508051906020019080838360005b83811015612270578082015181840152602081019050612255565b50505050905090810190601f16801561229d5780820380516001836020036101000a031916815260200191505b509250505060405180910390fd5b5060008385816122b757fe5b04905080915050939250505056fe4f776e61626c653a206e6577206f776e657220697320746865207a65726f2061646472657373536166654d6174683a206d756c7469706c69636174696f6e206f766572666c6f77a265627a7a72315820abc9755536e335362ed658abed434aece51ec6d954185d9371b68b4cff1dfe5864736f6c634300050c0032",
  "source": "\r\n// File: @openzeppelin\\contracts\\token\\ERC20\\IERC20.sol\r\n\r\npragma solidity ^0.5.0;\r\n\r\n/**\r\n * @dev Interface of the ERC20 standard as defined in the EIP. Does not include\r\n * the optional functions; to access them see {ERC20Detailed}.\r\n */\r\ninterface IERC20 {\r\n    /**\r\n     * @dev Returns the amount of tokens in existence.\r\n     */\r\n    function totalSupply() external view returns (uint256);\r\n\r\n    /**\r\n     * @dev Returns the amount of tokens owned by `account`.\r\n     */\r\n    function balanceOf(address account) external view returns (uint256);\r\n\r\n    /**\r\n     * @dev Moves `amount` tokens from the caller's account to `recipient`.\r\n     *\r\n     * Returns a boolean value indicating whether the operation succeeded.\r\n     *\r\n     * Emits a {Transfer} event.\r\n     */\r\n    function transfer(address recipient, uint256 amount) external returns (bool);\r\n\r\n    /**\r\n     * @dev Returns the remaining number of tokens that `spender` will be\r\n     * allowed to spend on behalf of `owner` through {transferFrom}. This is\r\n     * zero by default.\r\n     *\r\n     * This value changes when {approve} or {transferFrom} are called.\r\n     */\r\n    function allowance(address owner, address spender) external view returns (uint256);\r\n\r\n    /**\r\n     * @dev Sets `amount` as the allowance of `spender` over the caller's tokens.\r\n     *\r\n     * Returns a boolean value indicating whether the operation succeeded.\r\n     *\r\n     * IMPORTANT: Beware that changing an allowance with this method brings the risk\r\n     * that someone may use both the old and the new allowance by unfortunate\r\n     * transaction ordering. One possible solution to mitigate this race\r\n     * condition is to first reduce the spender's allowance to 0 and set the\r\n     * desired value afterwards:\r\n     * https://github.com/ethereum/EIPs/issues/20#issuecomment-263524729\r\n     *\r\n     * Emits an {Approval} event.\r\n     */\r\n    function approve(address spender, uint256 amount) external returns (bool);\r\n\r\n    /**\r\n     * @dev Moves `amount` tokens from `sender` to `recipient` using the\r\n     * allowance mechanism. `amount` is then deducted from the caller's\r\n     * allowance.\r\n     *\r\n     * Returns a boolean value indicating whether the operation succeeded.\r\n     *\r\n     * Emits a {Transfer} event.\r\n     */\r\n    function transferFrom(address sender, address recipient, uint256 amount) external returns (bool);\r\n\r\n    /**\r\n     * @dev Emitted when `value` tokens are moved from one account (`from`) to\r\n     * another (`to`).\r\n     *\r\n     * Note that `value` may be zero.\r\n     */\r\n    event Transfer(address indexed from, address indexed to, uint256 value);\r\n\r\n    /**\r\n     * @dev Emitted when the allowance of a `spender` for an `owner` is set by\r\n     * a call to {approve}. `value` is the new allowance.\r\n     */\r\n    event Approval(address indexed owner, address indexed spender, uint256 value);\r\n}\r\n\r\n// File: @openzeppelin\\contracts\\GSN\\Context.sol\r\n\r\npragma solidity ^0.5.0;\r\n\r\n/*\r\n * @dev Provides information about the current execution context, including the\r\n * sender of the transaction and its data. While these are generally available\r\n * via msg.sender and msg.data, they should not be accessed in such a direct\r\n * manner, since when dealing with GSN meta-transactions the account sending and\r\n * paying for execution may not be the actual sender (as far as an application\r\n * is concerned).\r\n *\r\n * This contract is only required for intermediate, library-like contracts.\r\n */\r\ncontract Context {\r\n    // Empty internal constructor, to prevent people from mistakenly deploying\r\n    // an instance of this contract, which should be used via inheritance.\r\n    constructor () internal { }\r\n    // solhint-disable-previous-line no-empty-blocks\r\n\r\n    function _msgSender() internal view returns (address payable) {\r\n        return msg.sender;\r\n    }\r\n\r\n    function _msgData() internal view returns (bytes memory) {\r\n        this; // silence state mutability warning without generating bytecode - see https://github.com/ethereum/solidity/issues/2691\r\n        return msg.data;\r\n    }\r\n}\r\n\r\n// File: @openzeppelin\\contracts\\ownership\\Ownable.sol\r\n\r\npragma solidity ^0.5.0;\r\n\r\n/**\r\n * @dev Contract module which provides a basic access control mechanism, where\r\n * there is an account (an owner) that can be granted exclusive access to\r\n * specific functions.\r\n *\r\n * This module is used through inheritance. It will make available the modifier\r\n * `onlyOwner`, which can be applied to your functions to restrict their use to\r\n * the owner.\r\n */\r\ncontract Ownable is Context {\r\n    address private _owner;\r\n\r\n    event OwnershipTransferred(address indexed previousOwner, address indexed newOwner);\r\n\r\n    /**\r\n     * @dev Initializes the contract setting the deployer as the initial owner.\r\n     */\r\n    constructor () internal {\r\n        _owner = _msgSender();\r\n        emit OwnershipTransferred(address(0), _owner);\r\n    }\r\n\r\n    /**\r\n     * @dev Returns the address of the current owner.\r\n     */\r\n    function owner() public view returns (address) {\r\n        return _owner;\r\n    }\r\n\r\n    /**\r\n     * @dev Throws if called by any account other than the owner.\r\n     */\r\n    modifier onlyOwner() {\r\n        require(isOwner(), \"Ownable: caller is not the owner\");\r\n        _;\r\n    }\r\n\r\n    /**\r\n     * @dev Returns true if the caller is the current owner.\r\n     */\r\n    function isOwner() public view returns (bool) {\r\n        return _msgSender() == _owner;\r\n    }\r\n\r\n    /**\r\n     * @dev Leaves the contract without owner. It will not be possible to call\r\n     * `onlyOwner` functions anymore. Can only be called by the current owner.\r\n     *\r\n     * NOTE: Renouncing ownership will leave the contract without an owner,\r\n     * thereby removing any functionality that is only available to the owner.\r\n     */\r\n    function renounceOwnership() public onlyOwner {\r\n        emit OwnershipTransferred(_owner, address(0));\r\n        _owner = address(0);\r\n    }\r\n\r\n    /**\r\n     * @dev Transfers ownership of the contract to a new account (`newOwner`).\r\n     * Can only be called by the current owner.\r\n     */\r\n    function transferOwnership(address newOwner) public onlyOwner {\r\n        _transferOwnership(newOwner);\r\n    }\r\n\r\n    /**\r\n     * @dev Transfers ownership of the contract to a new account (`newOwner`).\r\n     */\r\n    function _transferOwnership(address newOwner) internal {\r\n        require(newOwner != address(0), \"Ownable: new owner is the zero address\");\r\n        emit OwnershipTransferred(_owner, newOwner);\r\n        _owner = newOwner;\r\n    }\r\n}\r\n\r\n// File: @openzeppelin\\contracts\\math\\SafeMath.sol\r\n\r\npragma solidity ^0.5.0;\r\n\r\n/**\r\n * @dev Wrappers over Solidity's arithmetic operations with added overflow\r\n * checks.\r\n *\r\n * Arithmetic operations in Solidity wrap on overflow. This can easily result\r\n * in bugs, because programmers usually assume that an overflow raises an\r\n * error, which is the standard behavior in high level programming languages.\r\n * `SafeMath` restores this intuition by reverting the transaction when an\r\n * operation overflows.\r\n *\r\n * Using this library instead of the unchecked operations eliminates an entire\r\n * class of bugs, so it's recommended to use it always.\r\n */\r\nlibrary SafeMath {\r\n    /**\r\n     * @dev Returns the addition of two unsigned integers, reverting on\r\n     * overflow.\r\n     *\r\n     * Counterpart to Solidity's `+` operator.\r\n     *\r\n     * Requirements:\r\n     * - Addition cannot overflow.\r\n     */\r\n    function add(uint256 a, uint256 b) internal pure returns (uint256) {\r\n        uint256 c = a + b;\r\n        require(c >= a, \"SafeMath: addition overflow\");\r\n\r\n        return c;\r\n    }\r\n\r\n    /**\r\n     * @dev Returns the subtraction of two unsigned integers, reverting on\r\n     * overflow (when the result is negative).\r\n     *\r\n     * Counterpart to Solidity's `-` operator.\r\n     *\r\n     * Requirements:\r\n     * - Subtraction cannot overflow.\r\n     */\r\n    function sub(uint256 a, uint256 b) internal pure returns (uint256) {\r\n        return sub(a, b, \"SafeMath: subtraction overflow\");\r\n    }\r\n\r\n    /**\r\n     * @dev Returns the subtraction of two unsigned integers, reverting with custom message on\r\n     * overflow (when the result is negative).\r\n     *\r\n     * Counterpart to Solidity's `-` operator.\r\n     *\r\n     * Requirements:\r\n     * - Subtraction cannot overflow.\r\n     *\r\n     * _Available since v2.4.0._\r\n     */\r\n    function sub(uint256 a, uint256 b, string memory errorMessage) internal pure returns (uint256) {\r\n        require(b <= a, errorMessage);\r\n        uint256 c = a - b;\r\n\r\n        return c;\r\n    }\r\n\r\n    /**\r\n     * @dev Returns the multiplication of two unsigned integers, reverting on\r\n     * overflow.\r\n     *\r\n     * Counterpart to Solidity's `*` operator.\r\n     *\r\n     * Requirements:\r\n     * - Multiplication cannot overflow.\r\n     */\r\n    function mul(uint256 a, uint256 b) internal pure returns (uint256) {\r\n        // Gas optimization: this is cheaper than requiring 'a' not being zero, but the\r\n        // benefit is lost if 'b' is also tested.\r\n        // See: https://github.com/OpenZeppelin/openzeppelin-contracts/pull/522\r\n        if (a == 0) {\r\n            return 0;\r\n        }\r\n\r\n        uint256 c = a * b;\r\n        require(c / a == b, \"SafeMath: multiplication overflow\");\r\n\r\n        return c;\r\n    }\r\n\r\n    /**\r\n     * @dev Returns the integer division of two unsigned integers. Reverts on\r\n     * division by zero. The result is rounded towards zero.\r\n     *\r\n     * Counterpart to Solidity's `/` operator. Note: this function uses a\r\n     * `revert` opcode (which leaves remaining gas untouched) while Solidity\r\n     * uses an invalid opcode to revert (consuming all remaining gas).\r\n     *\r\n     * Requirements:\r\n     * - The divisor cannot be zero.\r\n     */\r\n    function div(uint256 a, uint256 b) internal pure returns (uint256) {\r\n        return div(a, b, \"SafeMath: division by zero\");\r\n    }\r\n\r\n    /**\r\n     * @dev Returns the integer division of two unsigned integers. Reverts with custom message on\r\n     * division by zero. The result is rounded towards zero.\r\n     *\r\n     * Counterpart to Solidity's `/` operator. Note: this function uses a\r\n     * `revert` opcode (which leaves remaining gas untouched) while Solidity\r\n     * uses an invalid opcode to revert (consuming all remaining gas).\r\n     *\r\n     * Requirements:\r\n     * - The divisor cannot be zero.\r\n     *\r\n     * _Available since v2.4.0._\r\n     */\r\n    function div(uint256 a, uint256 b, string memory errorMessage) internal pure returns (uint256) {\r\n        // Solidity only automatically asserts when dividing by 0\r\n        require(b > 0, errorMessage);\r\n        uint256 c = a / b;\r\n        // assert(a == b * c + a % b); // There is no case in which this doesn't hold\r\n\r\n        return c;\r\n    }\r\n\r\n    /**\r\n     * @dev Returns the remainder of dividing two unsigned integers. (unsigned integer modulo),\r\n     * Reverts when dividing by zero.\r\n     *\r\n     * Counterpart to Solidity's `%` operator. This function uses a `revert`\r\n     * opcode (which leaves remaining gas untouched) while Solidity uses an\r\n     * invalid opcode to revert (consuming all remaining gas).\r\n     *\r\n     * Requirements:\r\n     * - The divisor cannot be zero.\r\n     */\r\n    function mod(uint256 a, uint256 b) internal pure returns (uint256) {\r\n        return mod(a, b, \"SafeMath: modulo by zero\");\r\n    }\r\n\r\n    /**\r\n     * @dev Returns the remainder of dividing two unsigned integers. (unsigned integer modulo),\r\n     * Reverts with custom message when dividing by zero.\r\n     *\r\n     * Counterpart to Solidity's `%` operator. This function uses a `revert`\r\n     * opcode (which leaves remaining gas untouched) while Solidity uses an\r\n     * invalid opcode to revert (consuming all remaining gas).\r\n     *\r\n     * Requirements:\r\n     * - The divisor cannot be zero.\r\n     *\r\n     * _Available since v2.4.0._\r\n     */\r\n    function mod(uint256 a, uint256 b, string memory errorMessage) internal pure returns (uint256) {\r\n        require(b != 0, errorMessage);\r\n        return a % b;\r\n    }\r\n}\r\n\r\n// File: @openzeppelin\\contracts\\utils\\Address.sol\r\n\r\npragma solidity ^0.5.5;\r\n\r\n/**\r\n * @dev Collection of functions related to the address type\r\n */\r\nlibrary Address {\r\n    /**\r\n     * @dev Returns true if `account` is a contract.\r\n     *\r\n     * This test is non-exhaustive, and there may be false-negatives: during the\r\n     * execution of a contract's constructor, its address will be reported as\r\n     * not containing a contract.\r\n     *\r\n     * IMPORTANT: It is unsafe to assume that an address for which this\r\n     * function returns false is an externally-owned account (EOA) and not a\r\n     * contract.\r\n     */\r\n    function isContract(address account) internal view returns (bool) {\r\n        // This method relies in extcodesize, which returns 0 for contracts in\r\n        // construction, since the code is only stored at the end of the\r\n        // constructor execution.\r\n\r\n        // According to EIP-1052, 0x0 is the value returned for not-yet created accounts\r\n        // and 0xc5d2460186f7233c927e7db2dcc703c0e500b653ca82273b7bfad8045d85a470 is returned\r\n        // for accounts without code, i.e. `keccak256('')`\r\n        bytes32 codehash;\r\n        bytes32 accountHash = 0xc5d2460186f7233c927e7db2dcc703c0e500b653ca82273b7bfad8045d85a470;\r\n        // solhint-disable-next-line no-inline-assembly\r\n        assembly { codehash := extcodehash(account) }\r\n        return (codehash != 0x0 && codehash != accountHash);\r\n    }\r\n\r\n    /**\r\n     * @dev Converts an `address` into `address payable`. Note that this is\r\n     * simply a type cast: the actual underlying value is not changed.\r\n     *\r\n     * _Available since v2.4.0._\r\n     */\r\n    function toPayable(address account) internal pure returns (address payable) {\r\n        return address(uint160(account));\r\n    }\r\n\r\n    /**\r\n     * @dev Replacement for Solidity's `transfer`: sends `amount` wei to\r\n     * `recipient`, forwarding all available gas and reverting on errors.\r\n     *\r\n     * https://eips.ethereum.org/EIPS/eip-1884[EIP1884] increases the gas cost\r\n     * of certain opcodes, possibly making contracts go over the 2300 gas limit\r\n     * imposed by `transfer`, making them unable to receive funds via\r\n     * `transfer`. {sendValue} removes this limitation.\r\n     *\r\n     * https://diligence.consensys.net/posts/2019/09/stop-using-soliditys-transfer-now/[Learn more].\r\n     *\r\n     * IMPORTANT: because control is transferred to `recipient`, care must be\r\n     * taken to not create reentrancy vulnerabilities. Consider using\r\n     * {ReentrancyGuard} or the\r\n     * https://solidity.readthedocs.io/en/v0.5.11/security-considerations.html#use-the-checks-effects-interactions-pattern[checks-effects-interactions pattern].\r\n     *\r\n     * _Available since v2.4.0._\r\n     */\r\n    function sendValue(address payable recipient, uint256 amount) internal {\r\n        require(address(this).balance >= amount, \"Address: insufficient balance\");\r\n\r\n        // solhint-disable-next-line avoid-call-value\r\n        (bool success, ) = recipient.call.value(amount)(\"\");\r\n        require(success, \"Address: unable to send value, recipient may have reverted\");\r\n    }\r\n}\r\n\r\ninterface IUniswapROI {\r\n\r\n    function getCDAIUniROI() external view returns (uint256, uint256);\r\n    function getCBATUniROI() external view returns (uint256, uint256);\r\n    function getCETHUniROI() external view returns (uint256, uint256);\r\n    function getCREPUniROI() external view returns (uint256, uint256);\r\n    function getCSAIUniROI() external view returns (uint256, uint256);\r\n    function getCUSDCUniROI() external view returns (uint256, uint256);\r\n    function getCWBTCUniROI() external view returns (uint256, uint256);\r\n    function getCZRXUniROI() external view returns (uint256, uint256);\r\n\r\n\r\n    function getIZRXUniROI() external view returns (uint256, uint256);\r\n    function getIREPUniROI() external view returns (uint256, uint256);\r\n    function getIKNCUniROI() external view returns (uint256, uint256);\r\n    function getIWBTCUniROI() external view returns (uint256, uint256);\r\n    function getIUSDCUniROI() external view returns (uint256, uint256);\r\n    function getIETHUniROI() external view returns (uint256, uint256);\r\n    function getISAIUniROI() external view returns (uint256, uint256);\r\n    function getIDAIUniROI() external view returns (uint256, uint256);\r\n    function getILINKUniROI() external view returns (uint256, uint256);\r\n    function getISUSDUniROI() external view returns (uint256, uint256);\r\n\r\n    function getADAIUniROI() external view returns (uint256, uint256);\r\n    function getATUSDUniROI() external view returns (uint256, uint256);\r\n    function getAUSDCUniROI() external view returns (uint256, uint256);\r\n    function getAUSDTUniROI() external view returns (uint256, uint256);\r\n    function getASUSDUniROI() external view returns (uint256, uint256);\r\n    function getALENDUniROI() external view returns (uint256, uint256);\r\n    function getABATUniROI() external view returns (uint256, uint256);\r\n    function getAETHUniROI() external view returns (uint256, uint256);\r\n    function getALINKUniROI() external view returns (uint256, uint256);\r\n    function getAKNCUniROI() external view returns (uint256, uint256);\r\n    function getAREPUniROI() external view returns (uint256, uint256);\r\n    function getAMKRUniROI() external view returns (uint256, uint256);\r\n    function getAMANAUniROI() external view returns (uint256, uint256);\r\n    function getAZRXUniROI() external view returns (uint256, uint256);\r\n    function getASNXUniROI() external view returns (uint256, uint256);\r\n    function getAWBTCUniROI() external view returns (uint256, uint256);\r\n\r\n    function getDAIUniROI() external view returns (uint256, uint256);\r\n    function getTUSDUniROI() external view returns (uint256, uint256);\r\n    function getUSDCUniROI() external view returns (uint256, uint256);\r\n    function getUSDTUniROI() external view returns (uint256, uint256);\r\n    function getSUSDUniROI() external view returns (uint256, uint256);\r\n    function getLENDUniROI() external view returns (uint256, uint256);\r\n    function getBATUniROI() external view returns (uint256, uint256);\r\n    function getETHUniROI() external view returns (uint256, uint256);\r\n    function getLINKUniROI() external view returns (uint256, uint256);\r\n    function getKNCUniROI() external view returns (uint256, uint256);\r\n    function getREPUniROI() external view returns (uint256, uint256);\r\n    function getMKRUniROI() external view returns (uint256, uint256);\r\n    function getMANAUniROI() external view returns (uint256, uint256);\r\n    function getZRXUniROI() external view returns (uint256, uint256);\r\n    function getSNXUniROI() external view returns (uint256, uint256);\r\n    function getWBTCUniROI() external view returns (uint256, uint256);\r\n\r\n    function calcUniswapROI(address token) external view returns (uint256, uint256);\r\n}\r\n\r\n\r\ncontract UniswapAPR is Ownable {\r\n    using SafeMath for uint;\r\n    using Address for address;\r\n\r\n    uint256 public ADAICreateAt;\r\n    uint256 public CDAICreateAt;\r\n    uint256 public CETHCreateAt;\r\n    uint256 public CSAICreateAt;\r\n    uint256 public CUSDCCreateAt;\r\n    uint256 public DAICreateAt;\r\n    uint256 public IDAICreateAt;\r\n    uint256 public ISAICreateAt;\r\n    uint256 public SUSDCreateAt;\r\n    uint256 public TUSDCreateAt;\r\n    uint256 public USDCCreateAt;\r\n    uint256 public CHAICreateAt;\r\n\r\n    address public UNIROI;\r\n    address public CHAI;\r\n\r\n    uint256 public blocksPerYear;\r\n\r\n    constructor() public {\r\n      ADAICreateAt = 9248529;\r\n      CDAICreateAt = 9000629;\r\n      CETHCreateAt = 7716382;\r\n      CSAICreateAt = 7723867;\r\n      CUSDCCreateAt = 7869920;\r\n      DAICreateAt = 8939330;\r\n      IDAICreateAt = 8975121;\r\n      ISAICreateAt = 8362506;\r\n      SUSDCreateAt = 8623684;\r\n      TUSDCreateAt = 7794100;\r\n      USDCCreateAt = 6783192;\r\n      CHAICreateAt = 9028682;\r\n\r\n      UNIROI = address(0xD04cA0Ae1cd8085438FDd8c22A76246F315c2687);\r\n      CHAI = address(0x06AF07097C9Eeb7fD685c692751D5C66dB49c215);\r\n      blocksPerYear = 2102400;\r\n    }\r\n\r\n\r\n    function set_new_UNIROI(address _new_UNIROI) public onlyOwner {\r\n        UNIROI = _new_UNIROI;\r\n    }\r\n    function set_new_CHAI(address _new_CHAI) public onlyOwner {\r\n        CHAI = _new_CHAI;\r\n    }\r\n\r\n    function set_new_blocksPerYear(uint256 _new_blocksPerYear) public onlyOwner {\r\n        blocksPerYear = _new_blocksPerYear;\r\n    }\r\n\r\n    function getBlocksPerYear() public view returns (uint256) {\r\n      return blocksPerYear;\r\n    }\r\n\r\n    function calcUniswapAPRADAI() public view returns (uint256, uint256) {\r\n      (uint256 roi,uint256 liquidity) = IUniswapROI(UNIROI).getADAIUniROI();\r\n      return (calcUniswapAPRFromROI(roi, ADAICreateAt), liquidity);\r\n    }\r\n    function calcUniswapAPRCDAI() public view returns (uint256, uint256) {\r\n      (uint256 roi,uint256 liquidity) = IUniswapROI(UNIROI).getCDAIUniROI();\r\n      return (calcUniswapAPRFromROI(roi, CDAICreateAt), liquidity);\r\n    }\r\n    function calcUniswapAPRCETH() public view returns (uint256, uint256) {\r\n      (uint256 roi,uint256 liquidity) = IUniswapROI(UNIROI).getCETHUniROI();\r\n      return (calcUniswapAPRFromROI(roi, CETHCreateAt), liquidity);\r\n    }\r\n    function calcUniswapAPRCSAI() public view returns (uint256, uint256) {\r\n      (uint256 roi,uint256 liquidity) = IUniswapROI(UNIROI).getCSAIUniROI();\r\n      return (calcUniswapAPRFromROI(roi, CSAICreateAt), liquidity);\r\n    }\r\n    function calcUniswapAPRCUSDC() public view returns (uint256, uint256) {\r\n      (uint256 roi,uint256 liquidity) = IUniswapROI(UNIROI).getCUSDCUniROI();\r\n      return (calcUniswapAPRFromROI(roi, CUSDCCreateAt), liquidity);\r\n    }\r\n    function calcUniswapAPRDAI() public view returns (uint256, uint256) {\r\n      (uint256 roi,uint256 liquidity) = IUniswapROI(UNIROI).getDAIUniROI();\r\n      return (calcUniswapAPRFromROI(roi, DAICreateAt), liquidity);\r\n    }\r\n    function calcUniswapAPRIDAI() public view returns (uint256, uint256) {\r\n      (uint256 roi,uint256 liquidity) = IUniswapROI(UNIROI).getIDAIUniROI();\r\n      return (calcUniswapAPRFromROI(roi, IDAICreateAt), liquidity);\r\n    }\r\n    function calcUniswapAPRISAI() public view returns (uint256, uint256) {\r\n      (uint256 roi,uint256 liquidity) = IUniswapROI(UNIROI).getISAIUniROI();\r\n      return (calcUniswapAPRFromROI(roi, ISAICreateAt), liquidity);\r\n    }\r\n    function calcUniswapAPRSUSD() public view returns (uint256, uint256) {\r\n      (uint256 roi,uint256 liquidity) = IUniswapROI(UNIROI).getSUSDUniROI();\r\n      return (calcUniswapAPRFromROI(roi, SUSDCreateAt), liquidity);\r\n    }\r\n    function calcUniswapAPRTUSD() public view returns (uint256, uint256) {\r\n      (uint256 roi,uint256 liquidity) = IUniswapROI(UNIROI).getTUSDUniROI();\r\n      return (calcUniswapAPRFromROI(roi, TUSDCreateAt), liquidity);\r\n    }\r\n    function calcUniswapAPRUSDC() public view returns (uint256, uint256) {\r\n      (uint256 roi,uint256 liquidity) = IUniswapROI(UNIROI).getUSDCUniROI();\r\n      return (calcUniswapAPRFromROI(roi, USDCCreateAt), liquidity);\r\n    }\r\n    function calcUniswapAPRCHAI() public view returns (uint256, uint256) {\r\n      (uint256 roi,uint256 liquidity) = IUniswapROI(UNIROI).calcUniswapROI(CHAI);\r\n      return (calcUniswapAPRFromROI(roi, CHAICreateAt), liquidity);\r\n    }\r\n\r\n    function calcUniswapAPRFromROI(uint256 roi, uint256 createdAt) public view returns (uint256) {\r\n      require(createdAt < block.number, \"invalid createAt block\");\r\n      uint256 roiFrom = block.number.sub(createdAt);\r\n      uint256 baseAPR = roi.mul(1e15).mul(blocksPerYear).div(roiFrom);\r\n      uint256 adjusted = blocksPerYear.mul(1e18).div(roiFrom);\r\n      return baseAPR.add(1e18).sub(adjusted);\r\n    }\r\n\r\n    function calcUniswapAPR(address token, uint256 createdAt) public view returns (uint256) {\r\n      require(createdAt < block.number, \"invalid createAt block\");\r\n      // ROI returned as shifted 1e4\r\n      (uint256 roi,) = IUniswapROI(UNIROI).calcUniswapROI(token);\r\n      uint256 roiFrom = block.number.sub(createdAt);\r\n      uint256 baseAPR = roi.mul(1e15).mul(blocksPerYear).div(roiFrom);\r\n      uint256 adjusted = blocksPerYear.mul(1e18).div(roiFrom);\r\n      return baseAPR.add(1e18).sub(adjusted);\r\n    }\r\n\r\n    // incase of half-way error\r\n    function inCaseTokenGetsStuck(IERC20 _TokenAddress) onlyOwner public {\r\n        uint qty = _TokenAddress.balanceOf(address(this));\r\n        _TokenAddress.transfer(msg.sender, qty);\r\n    }\r\n    // incase of half-way error\r\n    function inCaseETHGetsStuck() onlyOwner public{\r\n        (bool result, ) = msg.sender.call.value(address(this).balance)(\"\");\r\n        require(result, \"transfer of ETH failed\");\r\n    }\r\n}\r\n",
  "sourcePath": "D:/ftm/uniswap-roi/contracts/UniswapAPR.sol",
  "compiler": {
    "name": "solc",
    "version": "0.5.12+commit.7709ece9.Emscripten.clang"
  },
  "schemaVersion": "3.0.19",
  "updatedAt": "2020-01-28T04:41:52.859Z",
  "devdoc": {
    "methods": {
      "isOwner()": {
        "details": "Returns true if the caller is the current owner."
      },
      "owner()": {
        "details": "Returns the address of the current owner."
      },
      "renounceOwnership()": {
        "details": "Leaves the contract without owner. It will not be possible to call `onlyOwner` functions anymore. Can only be called by the current owner.      * NOTE: Renouncing ownership will leave the contract without an owner, thereby removing any functionality that is only available to the owner."
      },
      "transferOwnership(address)": {
        "details": "Transfers ownership of the contract to a new account (`newOwner`). Can only be called by the current owner."
      }
    }
  },
  "userdoc": {
    "methods": {}
  }
}